:020000040800F2
:100000007092012059030008617000081B3A000833
:1000100071570008C91B0008577F00080000000046
:10002000000000000000000000000000990200082D
:10003000D322000800000000F5020008497A0008F9
:1000400073030008730300087303000873030008B8
:1000500073030008730300087303000873030008A8
:100060007303000873030008730300087303000898
:100070007303000873030008730300087303000888
:1000800073030008730300087303000800000000F6
:10009000000000000000000000000000D522000861
:1000A0007303000873030008730300087303000858
:1000B000257B00087303000873030008730300081E
:1000C0007303000873030008730300087303000838
:1000D00073030008730300087303000800000000A6
:1000E0007303000873030008730300080000000096
:1000F0000000000000000000000000007303000882
:100100000000000073030008730300087303000875
:1001100000000000000000000000000000000000DF
:100120007303000873030008B92100087303000873
:100130007303000800000000000000000000000041
:100140000000000000000000000000007303000831
:1001500073030008730300087303000873030008A7
:100160007303000873030008000000000000000093
:10017000000000000000000000000000000000007F
:1001800000000000730300080000000000000000F1
:10019000730300087303000800F002F800F06CF825
:1001A0000AA090E8000C82448344AAF10107DA45D2
:1001B00001D100F061F8AFF2090EBAE80F0013F0B8
:1001C000010F18BFFB1A43F001031847186605001A
:1001D000386605000A444FF0000C10F8013B13F09C
:1001E000070408BF10F8014B1D1108BF10F8015B90
:1001F000641E05D010F8016B641E01F8016BF9D183
:1002000013F0080F1EBF10F8014BAD1C0C1B09D1D9
:100210006D1E58BF01F801CBFAD505E014F8016B4B
:1002200001F8016B6D1EF9D59142D6D370470000DD
:100230000023002400250026103A28BF78C1FBD8EF
:10024000520728BF30C148BF0B607047662936F09F
:100250005C87642900F05681002070471FB536F096
:100260004AFF00F00BFE04000020002136F0B0F839
:10027000E0601FBD10B510BD00F001FF1146FFF793
:10028000EDFF2EF0FBFF00F01FFF03B4FFF7F2FFBE
:1002900003BC00F0EDFD00002C4B19680868B0E8C5
:1002A000F04F80F30988BFF36F8F4FF0000080F3A9
:1002B000118870470000000008480068006880F35B
:1002C00008884FF0000080F3148862B661B6BFF36F
:1002D0004F8FBFF36F8F00DF00BF00BF08ED00E05E
:1002E000DFF80C00016841F470010160704700BF45
:1002F00088ED00E0EFF30980BFF36F8F134B1A68AE
:100300001EF0100F08BF20ED108A20E9F04F10609A
:1003100009B44FF0500080F31188BFF34F8FBFF343
:100320006F8F34F067FF4FF0000080F3118809BC35
:1003300019680868B0E8F04F1EF0100F08BFB0EC65
:10034000108A80F30988BFF36F8F70471800002070
:10035000EFF30580704700000948804709480047CF
:10036000FEE7FEE7FEE7FEE7FEE7FEE7FEE7FEE765
:10037000FEE7FEE704480549054A064B70470000C2
:10038000117B000899010008708001207092012003
:10039000709001207090012053EA020C00F06980F7
:1003A0002DE9F04B4FF00006002B1FBFB3FA83F589
:1003B00003FA05F424FA05F65E4012BF1643B2FABA
:1003C00082F502FA05F4C5F120051EBF22FA05FCEC
:1003D00044EA0C04203556EA044C4FEA144418BF92
:1003E000641C4FF000084FF00009904271EB030CC1
:1003F00039D3002919BFB1FA81F701FA07F6B0FA2B
:1004000080F700FA07F6C7F120071EBF20FA07FCA5
:1004100046EA0C062037B6FBF4FCA7EB0507103FB5
:1004200007F01F0BCBF120060CFA0BFB2CFA06F69B
:1004300044BFB3460026202FA4BF5E464FF0000BFA
:100440005BEA060C08BF4FF0010B19EB0B09ABFB85
:10045000027C48EB0608C01B06FB02CC0BFB03CC5E
:1004600071EB0C01C1E70B46024641464846BDE828
:10047000F08B13B54FF000004FF00001AFF3008098
:10048000BDE81C40704700000FB41CB5084B06AA1D
:100490007B4469460090059800F0D1FC044600209A
:1004A000694600F0DFFC20461CBC5DF814FB000030
:1004B000D109000070B5044685690068C10601D500
:1004C000302600E02026C00707D070BDD4E9012106
:1004D00030469047206A401C20626D1EF6D570BDE4
:1004E00070B5044685690078C00707D170BDD4E9AE
:1004F000012120209047206A401C20626D1EF6D505
:1005000070BD00002DE9F0410646002410687529F1
:10051000314616A510D0AFF30080002802DA404221
:1005200013A507E031688A0701D512A502E0490743
:1005300004D511A5012401E0AFF3008000210A22B7
:1005400006F1240709E0B0FBF2FCB0FBF2F302FB7A
:100550001C00303078541846491C0028F3D123463B
:100560002A463046BDE8F04100F0FEB90000000028
:100570002D0000002B000000200000002DE9F05F9E
:10058000894604464FF0000ADFF824B1FB44C0F866
:1005900020A02046E168884700287DD0252806D085
:1005A000D4E901219047206A401C2062F1E7002530
:1005B0005F462046E16888472028064607DB312E43
:1005C00005D2B81910F8200C08B10543F1E7A807C7
:1005D00001D525F00405C4F81CA00027C4F818A014
:1005E0002A2E09D0304608F01BFF38B304EB8708E9
:1005F000303EC8F8186019E059F8041B204604EB97
:1006000087029161E1688847012F064618D1E069A9
:10061000002820DA25F020051DE0D8F8180000EBAE
:10062000800006EB40003038C8F818002046E1682A
:100630008847064608F0F4FE0028EED1012F0AD0C4
:100640002E2E08D12046E16888477F1C0646022FDF
:1006500045F02005C4DBA069002803DA404245F0DC
:100660000105A061E80701D025F01005A6B1A6F1AB
:100670004100192802D8203645F400654A46314623
:10068000204625604D46FFF7E1FD60B1012807D007
:10069000ED1D25F0070000E007E000F1080978E70C
:1006A00005F1040975E730467AE7206ABDE8F09F56
:1006B000C05A050040EA0103024630B59B0710D13D
:1006C0004FF0013400E008C208C91D1B9D4315EA24
:1006D000C41FF8D013F0FF0102F8011B0DD01B0A54
:1006E000F8E711F8013B002B02F8013B05D011F8A7
:1006F000013B002B02F8013BF3D130BD10B5431C88
:1007000002E010F8011B71B18107FAD14FF00132FC
:1007100002C88C1A8C4314EAC211F9D0C01A0A0616
:1007200003D0C01E10BDC01A10BD0A0401D0801E27
:1007300010BD0902FCD0401E10BD032A40F23080DB
:1007400010F0030C00F0158011F8013BBCF1020F12
:10075000624498BF11F801CB00F8013B38BF11F893
:10076000013BA2F1040298BF00F801CB38BF00F8AA
:10077000013B11F0030300F02580083AC0F0088027
:1007800051F8043B083A51F804CBA0E80810F5E70B
:10079000121D5CBF51F8043B40F8043BAFF30080EE
:1007A000D20724BF11F8013B11F801CB48BF11F863
:1007B000012B24BF00F8013B00F801CB48BF00F833
:1007C000012B704710B5203AC0F00B80B1E81850EB
:1007D000203AA0E81850B1E81850A0E81850BFF42B
:1007E000F5AF5FEA027C24BFB1E81850A0E81850CA
:1007F00044BF18C918C0BDE810405FEA827C24BF1E
:1008000051F8043B40F8043B08BF7047D20728BFAB
:1008100031F8023B48BF11F8012B28BF20F8023BFA
:1008200048BF00F8012B704702F0FF0343EA0322A0
:1008300042EA024200F002B84FF000020429C0F080
:10084000128010F0030C00F01B80CCF1040CBCF102
:10085000020F18BF00F8012BA8BF20F8022BA1EB54
:100860000C0100F00DB85FEAC17C24BF00F8012B39
:1008700000F8012B48BF00F8012B70474FF0000231
:1008800000B5134694469646203922BFA0E80C5086
:10089000A0E80C50B1F12001BFF4F7AF090728BF61
:1008A000A0E80C5048BF0CC05DF804EB890028BFDD
:1008B00040F8042B08BF704748BF20F8022B11F006
:1008C000804F18BF00F8012B704700004FF0013C2B
:1008D00050F8042B51F8043B9A4221D1A2EB0C03AF
:1008E000934313EACC1317D150F8042B51F8043B6F
:1008F0009A4215D1A2EB0C03934313EACC130BD10C
:1009000050F8042B51F8043B9A4209D1A2EB0C0396
:10091000934313EACC13DBD04FF00000704700BFC5
:10092000D01A01BAB1FA81F101F0180122FA01F0EE
:10093000CB40C1F12001DBB2C0B2C01A2CFA01F3E6
:10094000D11A914311EAC311E6D17047704770473D
:10095000704710B500F096FA006810BD10B5044657
:1009600000F090FA046010BD2DE9F0470D4699465D
:100970009246044600F124080168880604D5E0691F
:1009800021F01001216000E00120A84201DD471B99
:1009900000E00027A1697A1902EB0900081AA0619A
:1009A0002078C00602D42046FFF784FD002608E028
:1009B000D4E901211AF806009047206A401C761CF1
:1009C00020624E45F4DB2078C0060AD52046FFF7AA
:1009D00071FD06E0D4E9012130209047206A401CD7
:1009E0002062381EA7F10107F4DC07E0D4E90121F9
:1009F00018F805009047206A401C2062281EA5F1C7
:100A00000105F3DC2046FFF76BFD2078000602D5D8
:100A10000220BDE8F0870120FBE770472DE9FF4F7A
:100A20000C461E464FF0FF378BB0D2E90001DDF8CF
:100A300060800A908A46C1F30A5505B93D460021F7
:100A400008464FF00000BAF1000F00F4400005DA4C
:100A500000EB80004FF4400101EA50004FEA90594A
:100A6000B9F1010F00DDB9460A9850EA4A000ED0EC
:100A700044F61050A5F2FF3545432F14B8F1000F8E
:100A80001ED07542291E1EDDC9F100021CE0B8F11E
:100A9000010F4FF0000001D0302103E0F24305E0E8
:100AA0002154401CB042FBDB30460022002121547F
:100AB0000B99C1F80880C1E900200FB0BDE8F08FA4
:100AC000BD1B6D1CDEE74A4600DA694206A800F04D
:100AD00063FA06AB93E8070003AB83E807005046D0
:100AE0000A9900F0F7FA8DE80700A0F500501F38CA
:100AF00000900398002D09DD42F21F014A46084488
:100B000003A90390684600F056FD08E0A0F50050E8
:100B10004A461F3803A90390684600F060FD8DE83F
:100B200007000004000C03D04FF0FF30410800E044
:100B30001046B8F1000F03D00022009215461EE0C7
:100B4000751E05D400F0A2F9303262556D1EF9D53C
:100B5000B3460122084302D000227F1C04E0207823
:100B6000302801D100227F1E002A099786D01DE07F
:100B7000112D07DA00F08AF9303262556D1C50EA07
:100B80000102F5D1084302D00098C8B10EE000215F
:100B9000681E05E0235C625C63542254401E491CBD
:100BA0008142F7DBAB46A81B401E0990002004F8E9
:100BB0000B000B98099AC0F80880C0E9002B7CE76D
:100BC00011264FF0000859E72DE9F04F88460446FA
:100BD000D21D22F0070191B0D1E90001CDE90A014F
:100BE00007F0BBF902460B98C00F01D02D2007E09B
:100BF0002068810701D52B2002E0202101EAC000F6
:100C0000032A099001D0072A05DB03464146204606
:100C100000F082F90BE12078800601D5E06900E060
:100C20000620B8F1650F814606D0B8F1660F18D0DE
:100C3000B8F1670F70D131E00020B9F1110F0090C9
:100C400001DB112301E009F101030AAA01A90CA8A3
:100C5000FFF7E4FEDDE90C70002609F1010583468B
:100C600047E001204B4600904FF000470AAA01A937
:100C70000CA8FFF7D3FEDDE90DB00C995D46002608
:100C800010B909F101000D18B9EB050003D4C0F14A
:100C9000FF3609F10105A5EB09002BE0B9F1010FC1
:100CA00001DA4FF001090020B9F1110F0090484618
:100CB00001DD112300E003460AAA01A90CA8FFF7F1
:100CC000ADFEDDE90C704D46002683462078000716
:100CD0000AD4AB4500DA5D4601A8012D04DD4119B7
:100CE00011F8011C302907D04F4502DA17F1040F23
:100CF00004DA012082460FE06D1EEEE7002F02DCD1
:100D0000ED1B3E4403E0781CA84200DD7D1CB81BAF
:100D100000F1010A4FF000472078000703D4AA45EC
:100D200001DB4FF0FF3A0021B7F1004F0DF143080E
:100D30008DF8431024D002202B23002F01DA7F42AC
:100D40002D230A21021EA0F1010000DC5FB197FBF8
:100D5000F1FC97FBF1F201FB1C7C17460CF1300C07
:100D600008F801CDEEE7A8F101000370218809051C
:100D700001D5452100E06521A0F1010800F8011C22
:100D800009980FA9A1EB0807FF1D00B10120411927
:100D900001EBEA70A1693844081A401EA06120786E
:100DA000C00602D42046FFF785FB099828B1D4E994
:100DB00001219047206A401C20622078C00622D57D
:100DC0002046FFF777FB1EE0002E04DBB34502DD73
:100DD00001A8805D00E03020D4E901219047206A1D
:100DE000401C2062761CAAF101005FEA000A0AD1C9
:100DF00000F044F8C0680168405CD4E901219047E4
:100E0000206A401C2062281EA5F10105DCDC07E0F9
:100E1000D4E9012118F8010B9047206A401C206298
:100E2000381EA7F10107F3DC2046FFF759FB03202A
:100E300011B043E601694A1C02610878704700B5A9
:100E40008FB0CDE901310021059105497944CDE903
:100E5000031011466846FFF791FB0FB000BD00007C
:100E6000E5FFFFFF0A6802F8010B0A607047000007
:100E700001491820ABBEFEE726000200004870477B
:100E80002C800120004870470C80012030B5B0F163
:100E90000A024FEA900E71F100034EEA817EB0EB38
:100EA0000E0061EB91014FEA101E4EEA017E10EB3D
:100EB0000E0041EB11114FEA102E4EEA016E10EBBD
:100EC0000E0041EB11214FEA104E4EEA014E10EB9D
:100ED0000E0041EB1141401841F100014FEAD000F2
:100EE00040EA41704FEAD10110EB80054FEA8104DE
:100EF00044EA907444EB01046D1944EB0404521B62
:100F0000A3414FF0000348BF0A3200D530BD401C5A
:100F100041F1000130BD00002DE9F0411F460446BB
:100F200003260168072A01F4006004DB08B116A556
:100F300005E016A503E008B115A500E015A521F010
:100F400010002060A069C01EA0610FB1401EA0610A
:100F50002046FFF7AFFA4FB1D4E901213846904758
:100F6000206A401C2062C01C206206E0206AFAE76A
:100F7000D4E9012115F8010B9047761EF8D22046DE
:100F8000FFF7AEFABDE8F0814E414E006E616E0093
:100F9000494E4600696E66002DE9F04781461646C7
:100FA0008AB0334878440DC88DE80D003048784445
:100FB000801C03AC0DC884E80D0041F69B3008444A
:100FC000372190FBF1F290FBF1F5A5F1800501FBD3
:100FD00012041B3C02D56442012000E00020DFF82F
:100FE00090A080460027FA44AAF1BE0A0DE0E0076F
:100FF00009D03246684607EB47010AEB810100F051
:10100000EEFA8DE8070064107F1C002CEFD1184F1A
:101010007F44AC3F18E0E80714D007EB04100DF153
:10102000180A90E80E008AE80E00C068F04201D16C
:1010300098190890324606A903A800F0D0FA03AB2D
:1010400083E807006D10641C002DE4D13246694628
:10105000B8F1000F03A802D000F0ADFA01E000F0F3
:10106000BEFAC9E90001C9F808200AB0BDE8F08756
:101070000C530500004870470C80012070477546EE
:10108000FFF7F8FFAE4605006946534620F007001B
:10109000854618B020B5FFF76DF9BDE820404FF048
:1010A00000064FF000074FF000084FF0000B21F052
:1010B0000701AC46ACE8C009ACE8C009ACE8C0091F
:1010C000ACE8C0098D4670470446AFF30080204667
:1010D000FFF7DBF85FEA400C08BF91F0000F4FEA22
:1010E0008C234FEAC12243EA51514FEA1C5018BFEA
:1010F00000F5F0404FEA300018BF41F000415FEAD0
:101100006C5C00F02980BCF1FF3F08BF40F08040DC
:101110007047130C06BF12044FF0100C4FF0000C78
:10112000130E04BF12020CF1080C130F04BF1201BE
:101130000CF1040C930F04BF92000CF1020CD30FBE
:1011400004BF52000CF1010C11464FF00002A0F157
:101150001F00A0EB0C00704711F0004F08BF704754
:1011600031F000413FF4D5AF0B0C06BF09044FF03E
:10117000100C4FF0000C0B0E04BF09020CF1080C10
:101180000B0F04BF09010CF1040C8B0F04BF890085
:101190000CF1020CCB0F04BF49000CF1010CCCF197
:1011A0002003A0EB0C0022FA03F302FA0CF241EA4E
:1011B000030100F10100704720F07F4C80EA03003A
:1011C00023F07F47ACEB070303F57C5300F00040AE
:1011D00003F1FF032DE980494FEA154B09B44FEAAB
:1011E000144325EA0B4E24EA03480FF2042606EBCB
:1011F000132749083E785FEA320203FB0667C7F50A
:10120000000707FB06F64FEA54374FEAD64606F1C9
:10121000020607FB066CCCF1005C4FEA1C472CEA87
:10122000074C07FB06F40CFB06F504EB15464FEAEA
:10123000961634BF00204FF000404FEAD13706FB2E
:1012400007FC4FEA1C4C0CFB0BF7D21B03FB0CF703
:1012500061EB07010CFB0EF7B0EB074072EB174296
:101260000CFB08F734BFA2EB0742B2EB074261EB7D
:1012700017414FEA0C444FEA910706FB07FC4FEA7F
:101280001C4C0CFB0BF7B0EBC74072EB573203FB67
:101290000CF734BFA2EBC742B2EBC74261EB573148
:1012A0000CFB0EF7B0EBC70072EB57720CFB08F7A4
:1012B00034BFA2EBC702B2EBC70261EB5771039FC9
:1012C0004FEA816141EA921104EBCC044FEAD13735
:1012D0004FEA826206FB07FC42EA90124FEA806006
:1012E0004FEA1C4C0CFB0BF7D21B03FB0CF761EB1A
:1012F00007010CFB0EF7B0EB074072EB17420CFB3B
:1013000008F734BFA2EB0742B2EB074261EB17418B
:101310004FEA8C554FEA910704EB9C2406FB07FC2F
:101320004FEA1C4C0CFB0BF7B0EBC74072EB57328B
:1013300003FB0CF734BFA2EBC742B2EBC74261EB31
:1013400057310CFB0EF7B0EBC70072EB57720CFB7A
:1013500008F734BFA2EBC702B2EBC70261EB5771CB
:1013600015EB4C254FEA816141EA92114FEA826206
:101370004FEAD13742EA901206FB07FC44F1000421
:101380004FEA80604FEA1C4C0CFB0BF7D21B03FBAF
:101390000CF761EB07010CFB0EF7B0EB074072EBAB
:1013A00017420CFB08F734BFA2EB0742B2EB07422F
:1013B00061EB174115EB1C154FEA813141EA92416F
:1013C0004FEA823242EA90424FEA80304FEA0C768E
:1013D00044F1000448EA03434EEA0B484FF0000E84
:1013E000B2EB080C71EB030724BF624639464EEBA3
:1013F0000E0E4FF0000B0018524149414BEB0B0B06
:10140000B2EB080C71EB03077BF1000B24BF6246C3
:1014100039464EEB0E0E4FF0000B00185241494179
:101420004BEB0B0BB2EB080C71EB03077BF1000BE2
:1014300024BF624639464EEB0E0E51EA020718BF32
:1014400046F0010616EB0E7655F1000254F100014C
:1014500003D5BDE88901BDE80088BDE88901BDE884
:101460000048B619524141EB0101A3F10103704755
:1014700080807F7E7D7C7B7A7978777676757473D1
:10148000727171706F6E6E6D6C6C6B6A6A69686890
:10149000676666656464636362616160605F5F5E26
:1014A0005E5D5D5C5C5B5B5A5A595958585757569C
:1014B0005655555554545353525252515150505001
:1014C0004F4F4F4E4E4D4D4D4C4C4C4B4B4B4A4A53
:1014D0004A49494948484847474747464646454597
:1014E00045444444444343434342424242414141D0
:1014F000002B26D4770021D01CB54FEA370703B460
:101500004FF010004FF010014FF000000FBCBDE88D
:1015100010400BF1010BBBF1010F08BF5FEA170789
:1015200022BF12F1010211F101014FF0004143F11C
:10153000000300F0004043EA00007047F9D3570869
:10154000DAE746EA064613F1400F4FEA16461FDD7A
:1015500013F1200FDFBF16430A46002120335B4200
:10156000C8D0C3F1200746EA064602FA07F74FEA59
:10157000164646EA0706C3F1200722FA03F201FAEB
:1015800007F721FA03F14FF0000342EA0702B1E73F
:1015900046EA020646EA06464FEA164646EA0106CB
:1015A000BCBF46EA0646360C4FF000034FF000027F
:1015B0004FF000019EE72DE9C048934630B491E812
:1015C000380007C831EA400C48BF34EA430C03D561
:1015D000FFF7F2FDFFF78CFFF0BCBDE800882DE9B6
:1015E000C048934630B491E8380007C810F0804FE7
:1015F00008BF13F0804F03D100F005F8FFF778FF24
:10160000F0BCBDE8008820F07F4780EA030023F0AB
:101610007F4C07EB0C03A3F57C5300F00040A3F1D3
:10162000FE0392F0000F00F0B38095F0000F00F081
:1016300077802DE901494FEA11404FEA144621EA2B
:10164000004800FB06FC24EA064708FB06F607FBF9
:1016500008F800FB07F718EB06484CEB164C4FEA6E
:10166000124B18EB07484FEA15464CEB174022EA9D
:101670000B4E0BFB06FC25EA06470EFB06F607FBA6
:101680000EFE0BFB07F71EEB064E4CEB164C4FF015
:1016900000061EEB074E4CEB174B18EB0B0840F106
:1016A000000018EB0E0B58EB000840F100008F1AF9
:1016B0004FF000013CBFC943661B14BFB5EB040CDF
:1016C00000213CBFC943F61B4FEA17444EEA8E0E79
:1016D00027EA04454FEA1C4704FB07622CEA074C43
:1016E00005FB07F70CFB05F604FB0CFC16EB0746A5
:1016F00042EB174216EB0C4642EB1C421BEB060674
:1017000058EB0202414146EA9E0601D5BDE8018937
:10171000B619524141EB0101A3F10103BDE8018972
:101720004FEA14454FEA114724EA054621EA074CDF
:1017300005FB07F406FB07F70CFB06F105FB0CFCA9
:1017400011EB074144EB17444FEA124711EB0C41F0
:1017500044EB1C4422EA074C05FB07F206FB07F7A3
:101760000CFB06F605FB0CFC16EB074642EB17429A
:1017700016EB0C4642EB1C456A1854F1000148BFB9
:101780007047B619524141EB0101A3F101037047C3
:1017900095F0000F37D04FEA11424FEA144721EA83
:1017A000024624EA074C02FB07F106FB07F70CFB95
:1017B00006F402FB0CFC14EB074441EB17414FEA23
:1017C000154714EB0C4441EB1C4125EA074C02FB86
:1017D00007F506FB07F70CFB06F602FB0CFC16EB05
:1017E000074645EB174516EB0C4645EB1C42121914
:1017F00051F1000148BF7047B619524141EB010158
:10180000A3F1010370474FEA14454FEA114724EA58
:10181000054621EA074C05FB07F106FB07F70CFB21
:1018200006F24FF0000605FB0CFC12EB074241EB01
:10183000174112EB0C4251EB1C4148BF7047921804
:1018400041EB0101A3F101037047000010B506F060
:10185000C3F82948294908600846006828490C68E7
:101860001ECC1EC0702025490968087328200CF082
:101870009DFD00F03FFB002070B32048006803F09E
:1018800036F970211D48006803F0ECF81B48006829
:1018900003F06BF9BE211948006803F0E3F817481C
:1018A000006803F062F908211448006803F0DAF8D0
:1018B0001248006803F059F900211048006803F04D
:1018C000D1F80E48006803F050F90C48006803F0A6
:1018D0002DF90A200CF06AFD03220021012033F0CB
:1018E00077FE0849086003220021012033F070FED2
:1018F0000549086010BD0000984F0020A00000209E
:10190000A4000020600500206405002070B52DEDC6
:101910000A8B86B004460D4601269FED6F0BB0EE94
:10192000408AF0EE608A9FED6C0BB0EE409AF0EECC
:10193000609A6B48006803F0DAF869480068007B39
:1019400040F001016648006817F03CF964480068FF
:1019500003F00BF9064646B16148006803F0E6F86B
:10196000032006B0BDEC0A8B70BD5D48006817F01F
:10197000F2F85B48006803F05DF85948006817F01A
:10198000EAF801905648006803F054F8544800689B
:1019900017F0E1F802905248006803F04BF8504805
:1019A000006817F0D8F803904D48006803F042F83B
:1019B0004B48006817F0CFF804904948006803F0DE
:1019C00039F84748006817F0C6F8059044480068A1
:1019D00003F075F84248006803F0A8F8019908037D
:1019E00034F0D2FF41EC180B0299080134F0CCFF1F
:1019F00041EC1A0B53EC182B34F03EFD41EC180B64
:101A00000399080934F0C0FF41EC1A0B53EC182B72
:101A100034F032FD41EC180B9FED321B9FED330B80
:101A200006F0C6FAB0EE40BAF0EE60BA53EC1B2BEB
:101A300051EC180B34F0DCFD41EC1A0B9FED2D0B33
:101A400053EC102B34F0F0FF41EC180B84ED008BBD
:101A500003990907080B34F097FF41EC190B04991F
:101A6000080234F091FF41EC1A0B53EC192B34F0BF
:101A700003FD41EC190B059834F086FF41EC1A0B7D
:101A800053EC192B34F0F8FC41EC190B9FED151BAE
:101A90009FED160B06F08CFAB0EE40CAF0EE60CA6D
:101AA00053EC1C2B51EC190B34F0A2FD41EC1B0B39
:101AB0009FED120B53EC102B34F0B6FF41EC1A0BD8
:101AC0009FED100B53EC102B35F0BAF941EC190BCC
:101AD00085ED009B002044E70000000000000000AE
:101AE000A0000020000000000000344000000000C2
:101AF000000000400000000000005940000000000D
:101B000000006940000000000000494010B50124B9
:101B10001B48006802F0EBFF19480068017B184879
:101B2000006817F04FF81648006803F01EF80446E6
:101B30002CB11348006802F0F9FF022010BDAC215F
:101B40000F48006817F03EF80D48006803F00DF8E4
:101B500033210B48006817F035F80948006803F096
:101B600004F800210648006817F02CF804480068C3
:101B700002F0FBFF0248006802F0D8FF0020DDE71A
:101B8000A000002019E04FF0FF310C48006834F04D
:101B90000BF8012811D10EE00949886880474FF4FD
:101BA000FA6033F0F1F900210648006833F0FCFFD9
:101BB000012800D100E0EFE700BFE4E76005002066
:101BC0004C0500206405002000BFFEE710B5044668
:101BD0002146F92000F078F810BD000000B587B06C
:101BE000142102A8FEF74AFE00BF00200190194808
:101BF000006840F00200174908600846006800F0DD
:101C00000200019000BF00BF00BF00200190084605
:101C1000006840F0010008600846006800F001001C
:101C2000019000BF00BF4FF40040029001200390DC
:101C300004900320059002A9074800F0FFFD01224F
:101C4000D103054800F0E6FE044802F0BBFF07B0F0
:101C500000BD00003038024000000240E4000020D7
:101C600010B5022000F026F810BD00001CB501A838
:101C700004230322152100900C4802F0D5FF9DF8A3
:101C800005009DF8041001F00F0140EA0120084909
:101C900008609DF807000F309DF8061001F00F0155
:101CA00040EA0120024948601CBD0000E400002019
:101CB000DC00002010B5044622461521014802F040
:101CC000FAFF10BDE400002070B504460D462B4617
:101CD00022461521024803F01FF8064670BD000099
:101CE000E400002010B5FFF779FF0520FFF76EFF35
:101CF00010BD02462A2A0AD02B2A04D02D2A04D04D
:101D00002F2A14D10BE0002070470020FCE72B297C
:101D100001D02D2901D10120F6E70020F4E72B297D
:101D200001D02D2901D10120EEE70020ECE700BF12
:101D300000BF00BFE8E700003149B1F89011491E2B
:101D400089B22F4AA2F8901102EB810191ED000AAD
:101D5000B0EE401A1146B1F89011491E89B2A2F8AE
:101D6000901102EB810191ED000AF0EE400A2B2860
:101D70000FD130EE810A1146B1F89021B1F89011DF
:101D8000491C1F4BA3F89011194601EB820181ED0C
:101D9000000A2D280FD130EEC10A1949B1F890215F
:101DA000B1F89011491C164BA3F89011194601EB9C
:101DB000820181ED000A2A280FD120EE810A104904
:101DC000B1F89021B1F89011491C0D4BA3F8901176
:101DD000194601EB820181ED000A2F280FD180EE18
:101DE000810A0749B1F89021B1F89011491C044BC0
:101DF000A3F89011194601EB820181ED000A7047AA
:101E0000FC7D01201CB529480168684688470020F0
:101E100024F0CAFC2649086010212548006824F0F7
:101E2000FDFB234800681BF0E9F8224908609DF893
:101E300002309DF801209DF8030000F5FA611D486D
:101E400000681BF0C3F99DF801209DF8030000F520
:101E5000FA61184800681BF0F7F8164800681BF094
:101E6000E5F80446F0211348006829F02CF84FF4F7
:101E70008C711048006828F078FC09210D48006832
:101E800028F01EFC002211460A48006828F0B0FF26
:101E9000002211460748006828F0E4FE00231A4695
:101EA00005490348006823F055FE1CBD4C05002081
:101EB000380500203C050020BD1E00082DE9F0413A
:101EC000044620461FF01DFF054620461FF07AFFFE
:101ED00006460C2D09D121F019FD074621F01CFD05
:101EE000012802D1024805F0D9F8BDE8F0810000D0
:101EF0004005002070B501241348006802F0F7FD8A
:101F000011480068007B40F001010F48006816F09E
:101F100059FE0D48006802F028FE04462CB10A481C
:101F2000006802F003FE022070BD0748006816F04A
:101F300012FE05460448006802F0C1FD0248006830
:101F400002F0F4FD2846EFE7A00000207CB5002059
:101F50008949087089490870894908709FED890A84
:101F6000894880ED000AB7EE000A884880ED000A33
:101F7000002024F019FC864908601021844800687C
:101F800024F04CFB824800681AF068FA8149086026
:101F90008149804800681AF07FFE00227F497D4811
:101FA000006828F04FFF01217A4800681AF06CFFA2
:101FB000002500BF06E0A9B21022764800681AF09A
:101FC00019FE6D1C102DF6DB04217248006824F008
:101FD00025FB002211466F48006828F043FE0022CE
:101FE00011466C48006828F015FEDC22F021694893
:101FF000006828F0A0FC05216648006828F060FB16
:10200000634800682BF0BEFE654908600021644803
:1020100000682CF054F91421614800682CF04AF94A
:1020200002215F48006823F01AFE002211465C4836
:10203000006828F0DDFE002211465948006828F0AB
:1020400011FE6FF07F4000F47801090A00F47C4231
:1020500041EA5211C0F3C40211430091BDF80020BF
:10206000114600224E480191006828F0B6FD00227A
:1020700011464B48006828F0CDFD3C22C821484855
:10208000006828F058FC00231A46012144480068E3
:1020900023F056FE02214248006824F0BFFA0022D5
:1020A0003E493F48006828F0CDFE03213C480068C7
:1020B0002CF049F8364800681AF072F9394908607E
:1020C0006FF06D036FF0090208213648006823F0B5
:1020D00037FE28213348006828F0F5FE1E213148DC
:1020E000006828F042FB002211462E48006828F0C4
:1020F00091FD2C48006822F017F804462AA12046DA
:1021000023F01AF8FF2000210A46D608BDF8003057
:1021100066F304038E080093BDF8003066F34A139B
:10212000C6080093BDF8003066F3CF230093BDF8D6
:1021300000603346002219462046019328F071FEC4
:1021400000221A49204628F07DFE00BF00231A46CF
:102150000921204623F0F4FD00BF00231A4614494C
:102160000C48006823F0F6FC00231A4611490D487C
:10217000006823F0EFFC7CBDFC020020FD02002083
:10218000FE020020000000000003002004030020E5
:10219000F80200201803002024030020301D050849
:1021A0001C03002020030020EF959A0088BC04083F
:1021B00035460308C145030810B5024800F05EF932
:1021C00010BD0000504B002001460878103818233D
:1021D000B0FBF3F20848805CC865032A05D908689B
:1021E0006FF30900001D886503E008686FF30900BC
:1021F0008865886D70470000FE7103080146002065
:102200008A6A8B69CBB932B1012A0DD0022A03D078
:10221000032A10D10EE000BFCB6A03F08073B3F144
:10222000807F00D1012007E0CB6AB3F1C07F00D1ED
:10223000012001E000E000BF34E08B69B3F5005FEE
:102240001AD132B1012A07D0022A03D0032A11D1B0
:102250000AE000BF01200EE0CB6A03F08073B3F107
:10226000807F00D1012006E0CB6AB3F1C07F00D1AE
:10227000012000E000BF15E032B1012A05D0022A9A
:1022800004D0032A0CD103E000BF00BF012008E006
:10229000CB6A03F08073B3F1807F00D1012000E0AE
:1022A00000BF00BF704730B50468246824F4802460
:1022B00005682C60046863608468402C04D104685D
:1022C000A2600468E16003E00468A1600468E26061
:1022D00030BD704710B50748006800F0200040B1DD
:1022E0000448006840F0200002490860024801F0FC
:1022F0006BFA10BD143C0140D84F002072B600BFED
:10230000FEE700001FB5FFF701FC044614B114A05E
:1023100002F018FFFFF7EEFD044605E0FFF7EAFDC7
:10232000044650200CF042F8E0090028F6D1694636
:1023300002A8FFF7EBFA044684B99DED000B51ECBF
:10234000100B34F0DDFA0C4908719DED020B51ECD5
:10235000100B34F0D5FAC1B2074841711FBD00001F
:102360000D0A53746172745F54656D705F457272CB
:102370006F720D0A000000004C0500202C4909680E
:10238000C1F303412A4A1268C2F3035202EB8202EC
:1023900001EB4201C17026490968C1F30321244AB7
:1023A0001268C2F3003202EB820201EB420141707B
:1023B0001F49096801F00F011D4A1268C2F301129A
:1023C00002EB820201EB4201817019490968C1F3F5
:1023D000423101701649091F0968C1F30341144ACB
:1023E000121F1268C2F3015202EB820201EB42019A
:1023F00001710F49091F0968C1F303210C4A121F1B
:102400001268C2F3023202EB820201EB4201417117
:102410000749091F096801F00F01054A121F1268D8
:10242000C2F3021202EB820201EB4201817170479A
:102430000428004010B52DED068B05F045F810EE90
:10244000104A204634F0E6FD41EC1A0B9FED080BD4
:1024500053EC102B34F0CCF841EC190B33F0DAFFCD
:1024600008EE100A044880ED038ABDEC068B10BD0F
:1024700000000000000024404C050020F8B5044690
:10248000002000908C4800684FF41651B0FBF1F723
:10249000A56D2E6894F85C1008208840304098B1F3
:1024A0002068006800F0040070B12068006820F027
:1024B00004002168086094F85C1008208840A86037
:1024C000606D40F00100606594F85C100120884068
:1024D000304068B12068406900F0800040B194F855
:1024E0005C1001208840A860606D40F002006065CB
:1024F00094F85C1004208840304068B1206800687F
:1025000000F0020040B194F85C1004208840A860FC
:10251000606D40F00400606594F85C101020884005
:10252000304078B32068006800F0080050B394F899
:102530005C1010208840A8602068006800F48020AB
:1025400080B12068006800F4002028B9206CC8B170
:102550002046216C884715E0A06C98B12046A16CFC
:1025600088470FE02068006800F4807028B9206870
:10257000006820F0080021680860206C10B1204637
:10258000216C884794F85C10202088403040002857
:1025900065D02068006800F0100000285FD094F833
:1025A0005C1020208840A86094F83500052828D1C8
:1025B0002068006820F016002168086020684069E3
:1025C00020F0800021684861206C08B9A06C28B117
:1025D0002068006820F008002168086094F85C100A
:1025E0003F208840A860012084F8350000BF00200B
:1025F00084F8340000BF206D10B12046216D88475B
:10260000F8BD2068006800F4802080B12068006870
:1026100000F4002028B9606C10B12046616C884736
:102620001DE0E06BD8B12046E16B884717E02068D9
:10263000006800F4807068B92068006820F010001D
:1026400021680860012084F8350000BF002084F86C
:10265000340000BFE06B10B12046E16B8847606D2D
:1026600038B3606D00F00100F0B1052084F835004A
:102670002068006820F001002168086000BF009811
:10268000401C0090B84200D905E02068006800F0C6
:1026900001000028F3D100BF012084F8350000BFFD
:1026A000002084F8340000BFE06C10B12046E16CDB
:1026B000884700BFA4E70000840500202DE9F04111
:1026C0000446002500F0ACF9074614B90120BDE826
:1026D000F081606A00B100BF022084F8350000BFBD
:1026E000002084F8340000BF2068006820F001005A
:1026F000216808600AE000F093F9C01B052805D99D
:1027000020206065032084F83500E0E72068006839
:1027100000F001000028EED120680568214805403E
:10272000D4E901010843E16808432169084361696C
:102730000843A1690843E1690843216A0843054346
:10274000606A042803D1D4E90B01084305432068DB
:1027500005602068456925F00705606A0543606AE1
:1027600004280DD1A06A0543E06A48B12046FFF76E
:1027700045FD28B140206065012084F83500A6E7BA
:10278000206845612046FFF71FFD064694F85C105F
:102790003F208840B06000206065012084F835004B
:1027A000002094E73F8010F02DE9F04704460D46E5
:1027B00016461F464FF00008D4F8589000BF94F812
:1027C0003400012802D10220BDE8F087012084F8FE
:1027D000340000BF94F83500012825D1022084F888
:1027E0003500002060653B46324629462046FFF70B
:1027F0005AFD94F85C103F208840C9F80800206812
:10280000006840F0160021680860206C28B120683C
:10281000006840F00800216808602068006840F007
:1028200001002168086006E000BF002084F8340041
:1028300000BF4FF002084046C6E70000F8B5024668
:102840000B460025002400200021C7E0012606FADF
:1028500001F51E6806EA0504AC4274D11E7906F043
:102860000306012E04D01E7906F00306022E13D1B2
:1028700090684F000326BE40B0434F00DE68BE4064
:1028800030439060506801268E40B0431E79C6F3F5
:1028900000168E40304350601E7906F00306032E6A
:1028A00009D0D0684F000326BE40B0434F009E6859
:1028B000BE403043D0601E7906F00306022E13D1CD
:1028C000CF0802F1200656F827004E07F70E0F2614
:1028D000BE40B0434F07FF0E1E69BE403043CF08D5
:1028E00002F1200646F8270010684F000326BE407C
:1028F000B0431E7906F003064F00BE40304310601F
:102900005E6806F44036002E67D000BF00260096B1
:10291000344E366846F48046324F3E603E46366856
:1029200006F48046009600BF00BF2F4E8F0856F871
:1029300027008E07370F0F26BE40B0432B4EB24202
:1029400002D1002615E048E0294EB24201D101260D
:102950000FE0284EB24201D102260AE0264EB242D2
:1029600001D1032605E0254EB24201D1042600E044
:1029700007268F073F0FBE4030431B4E8F0846F897
:1029800027001F4E3068A0435E6806F4801606B12B
:1029900020431B4E3060361D3068A0435E6806F44D
:1029A000001606B12043164E361D3060144E361FF9
:1029B0003068A0435E6806F4003606B12043104E2E
:1029C000361F3060361F3068A0435E6806F48036DC
:1029D00006B120430A4E083E3060491C1029FFF41E
:1029E00035AFF8BD443802400838014000000240CD
:1029F0000004024000080240000C024000100240A7
:102A0000083C0140024613690B400BB1012000E075
:102A1000002070470AB1816101E00B0483617047B7
:102A200001480068704700009400002003480068D7
:102A30000349097808440149086070479400002060
:102A40009C00002010B50D48006840F400700B4950
:102A500008600846006840F4806008600846006826
:102A600040F480700860032000F07CF80F2000F034
:102A700007F800F02BF8002010BD0000003C0240D9
:102A800070B504460E4800784FF47A71B1FBF0F04F
:102A90000C490968B1FBF0F5284600F047FE08B183
:102AA000012070BD102C07D200222146501E00F0DC
:102AB0001BF80548046001E00120F2E70020F0E780
:102AC0009C0000208405002098000020704700BF73
:102AD00000F01F02012191404209920002F1E02220
:102AE000C2F8001100BF70472DE9F05F80460D4627
:102AF0001646002704F0B6FA074639462A463346FA
:102B000001F00700C0F1070ABAF1040F02D94FF033
:102B1000040A01E0C0F1070AD14600F1040ABAF143
:102B2000070F02D24FF0000A01E0A0F1030AD446D9
:102B30004FF0010A0AFA09FAAAF1010A0AEA020A9E
:102B40000AFA0CFA4FF0010B0BFA0CFBABF1010B7C
:102B50000BEA030B4AEA0B042146404604F08AFACA
:102B6000BDE8F09F00BF00F00702064B19684FF662
:102B7000FF031940044B0B4343EA0221014B196048
:102B800000BF70470CED00E00000FA0508B5012019
:102B90000349086203480068009000BF08BD0000B8
:102BA00000000E420070004070B504460D460CB99E
:102BB000012070BD5848006800F00700A84209D203
:102BC00055490D700846006800F00700A84201D082
:102BD0000120EEE7207800F0020002281DD12078C5
:102BE00000F00400042805D14C48006840F4E0508F
:102BF0004A490860207800F00800082805D14748B5
:102C0000006840F46040454908604448006820F08E
:102C1000F000A168084341490860207800F00100F5
:102C2000A8B36068012807D13C4808380068C0F3A1
:102C30004040B8B90120BCE76068022802D0606853
:102C4000032807D1354808380068C0F3406048B908
:102C50000120AEE7314808380068C0F3400008B9E9
:102C60000120A6E72D48006820F0030061680843B2
:102C70002A490860FFF7D4FE064609E0FFF7D0FEB8
:102C8000801B41F28831884202D9032091E707E096
:102C90002248006800F00C006168B0EB810FEDD1B4
:102CA0001D48006800F00700A84209D91A490D70B4
:102CB0000846006800F00700A84201D0012078E72C
:102CC000207800F00400042807D11448006820F49C
:102CD000E050E168084311490860207800F00800DE
:102CE000082808D10D48006820F46040216940EAB6
:102CF000C1000A49086000F03FF808490968C1F3BB
:102D00000311074A515CC84006490860064800683C
:102D1000FFF7B6FE00204CE7003C024008380240B6
:102D200038600508840500209800002001480068EC
:102D3000704700008405002000B5FFF7F7FF044945
:102D40000968C1F38221034A515CC84000BD0000FC
:102D5000083802404860050800B5FFF7E7FF04495E
:102D60000968C1F34231034A515CC84000BD00000C
:102D700008380240486005082DE9F0470024002586
:102D80000026A1462548006800F00C0020B1042868
:102D900005D008283AD105E0DFF8849039E0DFF863
:102DA000849036E01D48001F006800F03F041B4877
:102DB000001F006800F4800078B11A481749091F05
:102DC0000968C1F38811A0FB017001462246002367
:102DD0003846FDF7E1FA05460EE011480F49091F94
:102DE0000968C1F38811A0FB017001462246002347
:102DF0003846FDF7D1FA05460848001F0068C0F3C1
:102E00000140401C4600B5FBF6F902E0DFF81090E7
:102E100000BF00BF4846BDE8F08700000838024008
:102E20000024F40040787D01F8B504460CB9012077
:102E3000F8BD207800F00100002874D0F94800683F
:102E400000F00C0004280DD0F648006800F00C00DB
:102E5000082813D1F348001F006800F48000B0F583
:102E6000800F0BD1EF4808380068C0F340400028BD
:102E700059D06068002856D10120D9E700BF6068AA
:102E8000B0F5803F08D1E7480838006840F480304A
:102E9000E449083908601EE06068B0F5A02F0DD144
:102EA000E0480838006840F48020DE4908390860AE
:102EB0000846006840F4803008600CE0D9480838C3
:102EC000006820F48030D749083908600846006857
:102ED00020F48020086000BF606890B1FFF7A0FD7B
:102EE000054606E0FFF79CFD401B642801D903203E
:102EF0009EE7CC4808380068C0F340400028F1D075
:102F000011E0FFF78DFD054606E0FFF789FD401B48
:102F1000642801D903208BE7C24808380068C0F351
:102F200040400028F1D1207800F0020002285FD153
:102F3000BC48006800F00C0058B1BA48006800F0C6
:102F40000C0008281CD1B748001F006800F480005E
:102F5000B0B9B44808380068C0F3400020B1E06858
:102F6000012801D0012063E7AE480838006820F04E
:102F7000F800216940EAC100AA490839086037E031
:102F8000E06800B30120A8490860FFF749FD054645
:102F900006E0FFF745FD401B022801D9032047E763
:102FA000A04808380068C0F340000028F1D09D48D0
:102FB0000838006820F0F800216940EAC10099490A
:102FC0000839086014E0002097490860FFF728FDE1
:102FD000054606E0FFF724FD401B022801D9032027
:102FE00026E7904808380068C0F340000028F1D177
:102FF000207800F0080008282CD16069A8B10120D1
:103000008A490860FFF70CFD054606E0FFF708FD5A
:10301000401B022801D903200AE782486C3000686F
:10302000C0F340000028F1D014E000207F49086080
:10303000FFF7F6FC054606E0FFF7F2FC401B02280E
:1030400001D90320F4E677486C300068C0F34000F3
:103050000028F1D1207800F00400042870D1002766
:1030600070483830006800F0805090B900BF0020F0
:1030700000906C483830006840F080506949383121
:1030800008600846006800F08050009000BF00BF54
:1030900001276748006800F48070B0B96448006890
:1030A00040F4807062490860FFF7BAFC054606E00C
:1030B000FFF7B6FC401B022801D90320B8E65C48A4
:1030C000006800F480700028F2D000BFA0680128DA
:1030D00008D154486830006840F001005149683117
:1030E00008601DE0A06805280DD14E4868300068D2
:1030F00040F004004B49683108600846006840F021
:10310000010008600CE047486830006820F00100CA
:103110004449683108600846006820F004000860EF
:1031200000BFA068A8B1FFF77BFC054609E0FFF7E8
:1031300077FC401B41F28831884202D9032077E6B0
:1031400026E0384868300068C0F340000028EED020
:1031500013E0FFF765FC054608E0FFF761FC401B44
:1031600041F28831884201D9032061E62D48683058
:103170000068C0F340000028EFD1012F07D1294893
:103180003830006820F0805026493831086000BF90
:10319000A069002845D02348006800F00C000828EA
:1031A0005DD0A069022845D100201F490866FFF7BD
:1031B00037FC054606E0FFF733FC401B022801D927
:1031C000032035E6174808380068C0F3406000283F
:1031D000F1D1D4E907010843616A40EA8111012273
:1031E000A06AC2EB500041EA00412C20005D41EA98
:1031F00000600C49091F086001200B490866FFF7B1
:103200000FFC054606E0FFF70BFC401B022801D926
:1032100003200DE6034808380068C0F3406000282A
:10322000F1D049E00838024000004742800E474292
:1032300000700040002021490866FFF7F1FB0546B9
:1032400006E0FFF7EDFB401B022801D90320EFE564
:103250001B480068C0F340600028F2D12CE0A06950
:10326000012800D1E4E51648001D0668A069012880
:1032700020D006F48001E06981421BD106F03F01B5
:10328000206A814216D147F6C0703040616AB0EBC7
:10329000811F0FD106F440310122A06AC2EB500019
:1032A000B1EB004F06D106F070612C20005DB1EB50
:1032B000006F01D00120BBE50020B9E500004742C6
:1032C00000380240704710B504460CB9012010BD0B
:1032D000606A38B96068B0F5827F00D105E00021EE
:1032E000E16102E00021216161610021A16294F8A5
:1032F000510028B9002084F85000204600F048F81A
:10330000022084F851002068006820F04000216805
:103310000860A08800F48270218901F40441084308
:10332000A18901F400610843217C01F002010843F6
:10333000217D01F001010843218B01F40071084354
:10334000217F01F0380108432021095D01F080014F
:103350000843218D01F400510843216808600421CD
:10336000A06901EA104094F8241001F0100108430C
:10337000216848602068C06920F400602168C86145
:1033800000206065012084F8510000209FE70000C4
:1033900010B586B00446142101A8FDF76FFA324932
:1033A000206888425ED100BF002000902F4800684E
:1033B00040F480502D4908600846006800F48050B1
:1033C000009000BF00BF00BF0020009027481438C5
:1033D000006840F4800025491439086008460068F8
:1033E00000F48000009000BF00BF00BF00200090EC
:1033F0000846006840F0020008600846006800F0D7
:103400000200009000BF00BF28200190022002901F
:1034100000200390032004900520059001A9144882
:10342000FFF70CFA1348144908604FF080604860B9
:103430004021114881600021C1604FF48061016129
:1034400049004161890081610021C16101624162DD
:10345000FFF734F908B1FEF751FF00BF0648A0643A
:10346000846300BF06B010BD003001404438024004
:103470000004024040640240504B00202DE9F84F08
:103480000446884616461D464FF0000A00BF94F8D1
:103490005000012802D10220BDE8F88F012084F8F5
:1034A000500000BFFFF7BCFA0746B14694F8510040
:1034B000012802D04FF0020AADE0B8F1000F00D0B1
:1034C00016B94FF0010AA6E0032084F8510000204D
:1034D0006065C4F83080A686E686A063A087E08792
:1034E00060642064A068B0F5004F0BD120680068CC
:1034F00020F04000216808602068006840F48040A7
:10350000216808602068006800F04000402805D06D
:103510002068006840F0400021680860E068B0F56D
:10352000006F2FD1606810B1B9F1010F09D1206B84
:1035300000882168C860206B801C2063E08E401EDC
:10354000E0861BE02068806800F0020002280AD1B3
:10355000206B00882168C860206B801C2063E08E8F
:10356000401EE0860AE0FFF75BFAC01BA84201D3C9
:10357000681C00B915B94FF0030A4CE0E08E002832
:10358000E0D12EE0606810B1B9F1010F09D1206BD4
:10359000007821680873206B401C2063E08E401E79
:1035A000E0861BE02068806800F0020002280AD153
:1035B000206B007821680873206B401C2063E08E2C
:1035C000401EE0860AE0FFF72BFAC01BA84201D399
:1035D000681C00B915B94FF0030A1CE0E08E002802
:1035E000E0D13A462946204603F0CCFE08B120201F
:1035F0006065A06850B900BF002000902068C068D6
:10360000009020688068009000BF00BF606D08B126
:103610004FF0010A00BF012084F8510000BF0020D4
:1036200084F8500000BF504636E700002DE9F04115
:1036300004460E461546002700BF94F850000128A6
:1036400002D10220BDE8F081012084F8500000BFC3
:1036500094F85100012801D0022758E006B10DB9B5
:10366000012754E0032084F85100002060652663A0
:10367000A586E586A06360642064A087E087A068D3
:10368000B0F5004F0BD12068006820F040002168A1
:1036900008602068006840F48040216808601F4886
:1036A000A16C08641E48A16CC8631E48A16CC86464
:1036B0000020A16C0865E38ED4F800C00CF10C0268
:1036C000216BA06CFFF770F840B1606D40F0100006
:1036D00060650127012084F8510018E02068006827
:1036E00000F04000402805D02068006840F040000D
:1036F000216808602068406840F020002168486028
:103700002068406840F002002168486000BF00BFA8
:10371000002084F8500000BF384693E7F772000895
:1037200005730008CF7200087047704770B50446F3
:103730002546681EB0F1807F01D301200FE0681E8E
:103740004FF0E02148610F214FF0FF3003F092FC71
:1037500000204FF0E021886107200861002070BD43
:1037600010B504460CB9012010BD94F83D0028B9ED
:10377000002084F83C00204600F025F8022084F860
:103780003D00211D206804F035FA012084F8460030
:1037900000BF84F83E0001213F2001554020015523
:1037A0004120015500BF00BF012084F842004320A2
:1037B0000155442001554520015500BF012084F8E2
:1037C0003D000020D0E77047014691F83D000128F8
:1037D00001D001207047022081F83D00164B086897
:1037E000984213D00868B0F1804F0FD0134B08688F
:1037F00098420BD0124B0868984207D0114B0868CA
:10380000984203D0104B086898420CD10868806831
:1038100000F00702062A0CD00868006840F001009A
:103820000B68186005E00868006840F001000B684C
:1038300018600020CEE700000000014000040040B6
:1038400000080040000C00400040014010B5044654
:103850000CB9012010BDA06900B100E000BF94F8D0
:103860003D0028B9002084F83C00204600F028F8EC
:10387000242084F83D002068C06820F400502168AE
:10388000C860204604F008FA2068006920F49040DF
:10389000216808612068406920F02A002168486199
:1038A0002068C06840F400502168C860002020648F
:1038B000202084F83D0084F83E000020CAE7000084
:1038C00010B586B00446142101A8FCF7D7FF1B49A8
:1038D0002068884230D100BF00200090184800685E
:1038E00040F01000164908600846006800F010001B
:1038F000009000BF00BF00BF0020009010481438A7
:10390000006840F001000E4914390860084600685C
:1039100000F00100009000BF00BF4FF4C0600190B4
:1039200002200290002003900320049007200590BD
:1039300001A90448FEF782FF06B010BD0010014047
:1039400044380240000002402DE9F84F04460E467C
:10395000174699464FF0000A94F83D0020285AD1A6
:1039600006B117B90120BDE8F88F00BF94F83C00FC
:10397000012801D10220F6E7012084F83C0000BFB5
:1039800000202064212084F83D00FFF749F882469A
:10399000A784E784A068B0F5805F04D1206910B9DE
:1039A0000025B04602E035464FF0000800BF002079
:1039B00084F83C0000BF1BE05346002280212046D3
:1039C000CDF8009004F07EFA08B10320CBE745B9AA
:1039D000B8F80000C0F308002168486008F1020848
:1039E00003E02878216848606D1CE08C401EE0846C
:1039F000E08C0028E0D15346002240212046CDF83B
:103A0000009004F05FFA08B10320ACE7202084F8AE
:103A10003D000020A7E70220A5E700BFFEE77047B2
:103A20002DE9F041044620461EF06BF9054620467C
:103A30001EF0C8F906460C2D1AD11FF067FF074685
:103A40001FF06AFF022813D100231A4619460948BD
:103A5000006831F033FE00231A4619460648006814
:103A600031F02CFE054803F057FB054803F040FBFE
:103A7000BDE8F081640500206C050020780300207B
:103A8000200400201FB5002022F08EFEFE490860B1
:103A90000846FE4988601021006822F0BFFDFA4800
:103AA000006820F041FBFA49086042F2D171F84801
:103AB000006827F008FA42F2D171F548006826F054
:103AC00054FE6FF06801F248006827F015FA6FF0B5
:103AD0004501EF48006827F028FA0821EC48006803
:103AE00026F0EEFDEB480278EBA101A8FCF7CCFC38
:103AF00001A9E748006821F01FFB0022E749E448DC
:103B0000006827F09FF9E048006820F00DFBE449C9
:103B1000086042F2D171E248006827F0D4F942F21D
:103B2000D171DF48006826F020FE6FF05101DC48BB
:103B3000006827F0E1F96FF04501D948006827F0E7
:103B4000F4F90821D648006826F0BAFDD5A1D4487A
:103B5000006821F0F1FAD4481AF0D6F800220146A4
:103B60000090CF48006827F05CF90022FF21CC4884
:103B7000006827F074F90022C849C948006827F096
:103B800061F9C148006820F0CFFAC849086042F2E4
:103B9000D171C648006827F096F942F2D171C34846
:103BA000006826F0E2FD6FF01301C048006827F0BE
:103BB000A3F96FF04501BD48006827F0B6F9082168
:103BC000BA48006826F07CFDB9480278B9A101A87E
:103BD000FCF75AFC01A9B548006821F0ADFA0022B3
:103BE000AE49B248006827F02DF9A748006817F0E1
:103BF000FDFAB24908603221B048006827F063F945
:103C00003221AE48006826F0B0FD6FF04A01AB48A3
:103C1000006827F071F96FF04301A848006827F0A9
:103C200084F90921A548006826F04AFD0221A3482D
:103C3000006822F0F3FCA2480178A048006817F061
:103C4000AFFF002205219D48006826F0ACFF9D488B
:103C50001AF05AF84FF40032014600909748006875
:103C600026F085FF4FF40032FF219448006826F0CB
:103C70008EFF4FF4003205219048006826F093FF34
:103C800090481AF041F84FF44032014600908B48BA
:103C9000006826F0A2FF4FF44032FF2187480068F9
:103CA00026F0B8FF4FF4403200218448006827F026
:103CB00078F84FF4403200218048006827F07EF801
:103CC0004FF4403200217D48006827F084F84FF41B
:103CD000403200217948006827F056F86A480068A9
:103CE00020F022FA7849086042F2D17176480068E3
:103CF00027F0E9F842F2D1717348006826F035FDEB
:103D00006FF04A017048006827F0F6F86FF0310153
:103D10006D48006827F009F909216B48006826F012
:103D2000CFFC6AA16848006821F006FA654819F0DE
:103D3000EBFF0022014600906348006827F071F80D
:103D40000022FF216048006827F089F800226049BE
:103D50005D48006827F076F84B48006820F0E4F9E9
:103D60005C49086042F2D1715A48006827F0ABF80C
:103D700042F2D1715748006826F0F7FC6FF04A0113
:103D80005448006827F0B8F86FF0430151480068C4
:103D900027F0CBF809214F48006826F091FC4848ED
:103DA00002784DA101A8FCF76FFB01A94948006802
:103DB00021F0C2F900224A494648006827F042F83B
:103DC0003148006820F0B0F94649086042F2D171EC
:103DD0004448006827F077F842F2D1714148006802
:103DE00026F0C3FC6FF04A013E48006827F084F8D3
:103DF0006FF06D013B48006827F097F808213948BB
:103E0000006826F05DFC384803783848027838A10D
:103E100001A8FCF739FB01A93248006821F08CF9B0
:103E2000364819F071FF0022014600902D480068C5
:103E300026F0F7FF0022FF212A48006827F00FF83C
:103E400000222F492748006826F0FCFF0E48006832
:103E500020F06AF92B49086042F2D17129480068C4
:103E600027F031F842F2D1712648006826F07DFC37
:103E70006FF013012348006827F03EF86FF06D01E2
:103E80002048006840E0000074030020247D0120E9
:103E900088030020E003002025326400902E0508EE
:103EA0008C0300203A0000008080800090030020F6
:103EB000E10300202530326400000000940300205C
:103EC0000304002019C8190098030020EE9A8F00FF
:103ED000482F05089C03002025326425250000009A
:103EE0000CAD0308A0030020010400200004002002
:103EF0002532642D25303264000000001E46FF008C
:103F0000784C0408A403002027F00FF80821FE488D
:103F1000006826F0D5FBFD480078401EFC4A52F8A8
:103F20002010F948006821F007F9FA4819F0ECFE72
:103F3000002201460090F448006826F072FF00223B
:103F4000FF21F148006826F08AFF0022F249EE487E
:103F5000006826F077FFF148006820F0E5F8F049A6
:103F6000086042F2D171EE48006826F0ACFF42F2E0
:103F7000D171EB48006826F0F8FB6FF05901E84872
:103F8000006826F0B9FF6FF00401E548006826F0EC
:103F9000CCFF0921E248006826F092FBE1A1E0484D
:103FA000006821F0C9F8E04819F0AEFE0022014691
:103FB0000090DB48006826F034FF0022FF21D8483B
:103FC000006826F04CFF0022D849D548006826F04A
:103FD00039FFD248006820F0A7F8D549086042F2BE
:103FE000D171D348006826F06EFF42F2D171D048FB
:103FF000006826F0BAFB6FF02701CD48006826F074
:104000007BFF6FF00401CA48006826F08EFF09218B
:10401000C748006826F054FBC6A1C548006821F0D7
:104020008BF8C14819F070FE002201460090C0488C
:10403000006826F0F6FE0022FF21BD48006826F049
:104040000EFF0022BF49BA48006826F0FBFEB348C5
:10405000006820F069F8BC49086042F2D171BA48A2
:10406000006826F030FF42F2D171B748006826F0B0
:104070007CFB6FF03B01B448006826F03DFF142143
:10408000B148006826F051FF0921AF48006826F0CA
:1040900017FBAE480288AEA101A8FCF7F5F901A90B
:1040A000A948006821F048F80022AA49A6480068FB
:1040B00026F0C8FE9948006817F0B4FFA6490860CA
:1040C00000222821A448006818F0AEF8C821A248B0
:1040D000006826F0F8FE0A219F48006826F045FB9C
:1040E00000219D48006826F007FF28219A480068B3
:1040F00026F01BFF09219848006826F0E1FA8A485B
:1041000019F002FE4FF40032014600909248006818
:1041100026F063FD4FF40032FF218F48006826F03F
:1041200079FD7E48006817F061F88C4908603221FB
:104130008A48006826F0C7FE32218848006826F0C9
:1041400014FB6FF04A018548006826F0D5FE5A211D
:104150008248006826F0E9FE09218048006826F0C0
:10416000AFFA02217D48006822F058FA3C226FF035
:1041700013017A48006817F09FFC794890F9001005
:104180007648006817F00CFD00220521734800688E
:1041900026F009FD734819F0B7FD4FF400320146CF
:1041A00000906E48006826F0E2FC4FF40032FF21D8
:1041B0006A48006826F0EBFC4FF40032052167489E
:1041C000006826F0F0FC674819F09EFD4FF440327D
:1041D000014600906148006826F0FFFC4FF4403231
:1041E000FF215E48006826F015FD4FF440320021A3
:1041F0005A48006826F0D5FD4FF440320021574858
:10420000006826F0DBFD4FF440320021534800687F
:1042100026F0E1FD4FF4403200215048006826F0BE
:10422000B3FD3E4800681FF07FFF4F49086042F22F
:10423000D1714D48006826F046FE42F2D1714A48DD
:10424000006826F092FA6FF04A014748006826F0AD
:1042500053FE5A214448006826F067FE092142486F
:10426000006826F02DFA41A13F48006820F064FF65
:104270003C4819F049FD0022014600903A48006888
:1042800026F0CFFD0022FF213748006826F0E7FD29
:10429000002237493448006826F0D4FD1F480068E2
:1042A0001FF042FF3349086042F2D1713148006883
:1042B00026F009FE42F2D1712E48006826F055FA28
:1042C0006FF048012B48006826F016FE7D21294832
:1042D000006826F02AFE09212648006826F0F0F939
:1042E0001F4890F900201AA101A8FCF7CDF801A9F8
:1042F0002048006820F020FF084800681FF014FFE5
:104300001D4908603AE00000A403002002040020D8
:10431000E40300201E46FF00784C040874030020CC
:10432000A8030020EE99B600FF7832003831050866
:10433000AC030020E6B5B7E68B94E9AB98E5BAA6E6
:104340000000000070BF0408B00300200404002037
:104350002564000058F70308B4030020B8030020C8
:10436000090400203AA7F500BC030020EE9999004B
:1043700090440508C0030020C403002042F2D1711C
:10438000F548006826F09FFD42F2D171F2480068BE
:1043900026F0EBF90021F048006826F0ADFD592128
:1043A000ED48006826F0C1FD0921EB48006826F0C1
:1043B00087F9EAA1E848006820F0BEFEE84819F055
:1043C000A3FC002201460090E348006826F029FD86
:1043D0000022FF21E048006826F041FD0022E1496B
:1043E000DD48006826F02EFDDF48006816F0FEFE6E
:1043F000DE4908603221DD48006826F064FD322184
:10440000DA48006826F0B1F90021D848006826F0A3
:1044100073FD5A21D548006826F087FD0921D3484D
:10442000006826F04DF90221D048006822F0F6F825
:10443000CF4890F90010CD48006817F0B1FB4FF459
:104440001B724FF48771C948006817F060FA0022A8
:104450000521C648006826F0A6FBC14819F054FCA7
:104460004FF4003201460090C048006826F07FFB00
:104470004FF40032FF21BD48006826F088FB4FF45E
:1044800000320521B948006826F08DFBB44819F0C8
:104490003BFC4FF4403201460090B448006826F0DF
:1044A0009CFB4FF44032FF21B048006826F0B2FB7D
:1044B0004FF440320021AD48006826F072FC4FF402
:1044C00040320021A948006826F078FC4FF44032C1
:1044D0000021A648006826F07EFC4FF440320021FF
:1044E000A248006826F050FC9F4800681FF01CFEA0
:1044F000A049086042F2D1719E48006826F0E3FCB2
:1045000042F2D1719B48006826F02FF900219948AA
:10451000006826F0F1FC7D219648006826F005FD34
:1045200009219448006826F0CBF8914890F90020C2
:10453000AFF2E41101A8FBF7A7FF01A98D480068BD
:1045400020F0FAFD8848006816F050FE8A4908609D
:1045500032218948006826F0B6FC3221864800687E
:1045600026F003F946218448006826F0C5FC5A214C
:104570008148006826F0D9FC09217F48006826F0B0
:104580009FF802217C48006822F048F864217A48AC
:10459000006817F005FB4FF41B724FF487717648E3
:1045A000006817F0B4F9002205217348006826F06E
:1045B000FAFA724819F0A8FB4FF400320146009055
:1045C0006D48006826F0D3FA4FF40032FF216A48A4
:1045D000006826F0DCFA4FF40032052166480068D6
:1045E00026F0E1FA654819F08FFB4FF4403201469E
:1045F00000906148006826F0F0FA4FF44032FF2145
:104600005D48006826F006FB4FF4403200215A480E
:10461000006826F0C6FB4FF440320021564800687F
:1046200026F0CCFB4FF4403200215348006826F0BE
:10463000D2FB4FF4403200214F48006826F0A4FB23
:10464000494800681FF070FD4D49086042F2D17181
:104650004B48006826F037FC42F2D17148480068A8
:1046600026F083F846214648006826F045FC5A218A
:104670004348006826F059FC09214148006826F0AB
:104680001FF840A13E48006820F056FD3B4819F055
:104690003BFB0022014600903948006826F0C1FB30
:1046A0000022FF213648006826F0D9FB0022364957
:1046B0003348006826F0C6FB2B4800681FF034FD25
:1046C0003249086042F2D1713048006826F0FBFBA5
:1046D00042F2D1712D48006826F047F846212B4858
:1046E000006826F009FC7D212848006826F01DFCA2
:1046F00009212648006825F0E3FF6322AFF2B031BC
:1047000001A8FBF7C1FE01A92048006820F014FDB4
:1047100000231A461E491448006821F01BFA0023A2
:104720001A4619461B48006830F0C8FF00231A4695
:1047300019461948006830F0C1FF00224FF47A7121
:10474000164829F099FF1649086007480468204672
:1047500019F0D7FE00BF1FBDC4030020EE99B300BF
:10476000E1C814002C39050874030020C803002098
:104770000A040020CC030020D00300203214E10002
:10478000D4030020EE9DA20064490508D803002050
:10479000213A00086005002068050020A5470008B0
:1047A000DC03002070B52DED068B05466748806858
:1047B0006749896888427CD166480079664991F9E1
:1047C0000010884217D06348007940B262490870EF
:1047D000084690F900106148006817F0E1F95E485A
:1047E00090F900205EA15F48FBF74EFE5D495E48F0
:1047F000006820F0A1FC574840795C4991F900100D
:10480000884217D05348407940B25849087008464A
:1048100090F900105648006817F0C2F9534890F913
:1048200000204FA14F48FBF72FFE4E49514800682A
:1048300020F082FC474890ED030A4F48D0ED000A73
:10484000B4EE600AF1EE10FA37D0424890ED030A58
:10485000494880ED000A006832F0DCFB41EC1A0B9D
:104860009FED460B53EC102B31F0C2FE41EC190BBF
:104870009FED440B53EC102B32F0D6F841EC180BA3
:1048800032F00EF80446002221464048006817F036
:10489000CBFC3948006832F0BDFB41EC180B53ECFF
:1048A000182B3BA12F48FBF7EFFD2E493A48006833
:1048B00000E047E020F040FC00BF26480168374890
:1048C0008847364800793649087034484079354978
:1048D00008703248407834490870304800783349CD
:1048E00008702E488078324908702D48027831A12E
:1048F0001C48FBF7C9FD1B492F48006820F01CFC31
:10490000284802782DA11748FBF7BEFD15492D4810
:10491000006820F011FC26480378234802782AA179
:104920001048FBF7B1FD0F492A48006820F004FC4D
:104930001E480078401E284A52F820102748006878
:1049400020F0FAFBBDEC068B70BD0000247D012039
:10495000780300204C05002009040020B803002043
:1049600025640000F67F0120C00300200A04002017
:10497000C8030020CC0300200C040020000000002D
:104980000088B3400000000000005940B40300203C
:10499000252E326600000000B00300201204002023
:1049A000E0030020E10300200004002002040020B6
:1049B0000104002025326400880300202530326481
:1049C00000000000900300202532642D2530326461
:1049D00000000000A0030020E4030020A403002046
:1049E00070B5054608260024284602F039FC13E07D
:1049F0006006040E0021284602F01AFC022009F08D
:104A0000E1FC0121284602F013FC012009F0DAFC48
:104A1000284602F01AFC04433000A6F10101CEB290
:104A2000E6D10021284602F003FC284602F03AFCB9
:104A3000204670BD10B504460021204602F025FC3A
:104A4000012009F0BFFC0121204602F0F1FB022009
:104A500009F0B8FC0021204602F0EAFB022009F030
:104A6000B1FC10BD70B505460C4608261AE00021C1
:104A7000284602F0DDFB022009F0A4FC04F08001CE
:104A8000284602F002FC012009F09CFC6006040E9E
:104A9000012009F097FC0121284602F0C9FB012002
:104AA00009F090FC3000A6F10101CEB2DFD1002167
:104AB000284602F0BDFB022009F084FC70BD10B551
:104AC00004460121204602F0E0FB012009F07AFCB7
:104AD0000121204602F0ACFB022009F073FC00210A
:104AE000204602F0A5FB022009F06CFC10BD10B5B9
:104AF00004460121204602F0C8FB022009F062FCB6
:104B00000121204602F094FB022009F05BFC002109
:104B1000204602F0BAFB022009F054FC0021204696
:104B200002F086FB022009F04DFC10BD10B50446D2
:104B30000021204602F07CFB022009F043FC00210A
:104B4000204602F0A2FB022009F03CFC0121204695
:104B500002F06EFB022009F035FC0121204602F034
:104B600094FB022009F02EFC10BD70B5054605240B
:104B7000284602F075FB042009F024FC0121284698
:104B800002F056FB0DE0601E84B2042009F01AFC0E
:104B90003CB9284602F086FB2846FFF7C7FF0120F4
:104BA00070BD284602F051FB0028ECD1284602F0E7
:104BB00079FB0021284602F03BFB042009F002FCAF
:104BC0000020EDE710B586B00446142101A8FBF7DC
:104BD00055FE00BF002000901248006840F002001F
:104BE000104908600846006800F00200009000BF0D
:104BF00000BF208901901120029001200390022023
:104C0000049001A92068FDF719FE60890190012038
:104C1000029003900220049001A96068FDF70EFE47
:104C200006B010BD303802402DE9F04780460D46F1
:104C300017461E46DDF820904046FFF758FF6806ED
:104C4000010E4046FFF70EFF4046FFF78EFF28B1EA
:104C50004046FFF76BFF0120BDE8F087394640462C
:104C6000FFF700FF4046FFF780FF4046FFF73FFF9A
:104C7000012000EB4500C1B24046FFF7F3FE40467D
:104C8000FFF773FF00240CE04046FFF7A9FE09F888
:104C90000400701EA04202DD4046FFF7CBFE601C00
:104CA000C4B2B442F0DB4046FFF709FF4046FFF7CD
:104CB0003DFF0020D0E72DE9F04106460C461546A1
:104CC0003046FFF714FF6006010E3046FFF7CAFEBC
:104CD0003046FFF74AFF29463046FFF7C3FE30460D
:104CE000FFF743FF3046FFF702FF012000EB4400CF
:104CF000C1B23046FFF7B6FE3046FFF736FF30460A
:104D0000FFF76EFE07463046FFF7D9FE3046FFF745
:104D10000DFF3846BDE8F0812DE9F04107460C460D
:104D200015461E463846FFF7E2FE6006010E38467D
:104D3000FFF798FE3846FFF718FF28B13846FFF70F
:104D4000F5FE0120BDE8F08129463846FFF78AFECE
:104D50003846FFF70AFF31463846FFF783FE3846EC
:104D6000FFF703FF3846FFF7E1FE012009F02AFBB9
:104D70000020E7E700B587B000BF0020019014488D
:104D8000006840F00100124908600846006800F021
:104D90000100019000BF00BF142102A8FBF76EFDC7
:104DA000202002904FF4041003900120049002A9E7
:104DB0000848FDF743FD002206211720FDF794FE69
:104DC0001720FDF784FE02F0D3FE002007B000BDDF
:104DD00030380240000002402DE9F04107460C4601
:104DE00015461E462A2000F073F9384600F058F99F
:104DF000284600F055F92B2000F06AF9204600F013
:104E00004FF9304600F04CF92C2000F061F9BDE874
:104E1000F08100002DE9F05F06460C4617461D465E
:104E2000DDF82880B81B401C1FFA80F9281B401CA5
:104E30001FFA80FA09FB0AFB05F1140083B204F1A2
:104E4000140081B23A463046FFF7C6FF4FF40061C6
:104E50001048C1600068006840F400600D490968AE
:104E600008601FFA8BF241460A48FEF7DFFB00BFDD
:104E70000948006840680028FAD100210548C1604F
:104E80000068006820F40060024909680860BDE815
:104E9000F09F0000F84A0020504B002000B587B07A
:104EA000142102A8FBF7EAFC00BF00200190104883
:104EB000006840F002000E4908600846006800F0F3
:104EC0000200019000BF00BF4FF46070029001200B
:104ED00003900320059002A90648FDF7AFFC0122CC
:104EE0004FF460710348FDF795FD07B000BD000069
:104EF000303802400004024010B5FFF7CFFF002217
:104F00004FF480716548FDF785FD002280216348DC
:104F1000FDF780FD642009F049FA012280215F48F5
:104F2000FDF778FD642009F041FA112000F0D0F877
:104F3000782009F03BFA362000F0CAF8002000F093
:104F4000C1F83A2000F0C4F8052000F0BBF8B22008
:104F500000F0BEF80C2000F0B5F80C2000F0B2F81C
:104F6000002000F0AFF8332000F0ACF8332000F060
:104F7000A9F8B72000F0ACF8352000F0A3F8BB206A
:104F800000F0A6F8192000F09DF8C02000F0A0F86D
:104F90002C2000F097F8C22000F09AF8012000F0D1
:104FA00091F8C32000F094F8122000F08BF8C42090
:104FB00000F08EF8202000F085F8C62000F088F878
:104FC0000F2000F07FF8D02000F082F8A42000F03D
:104FD00079F8A12000F076F8E02000F079F8D020F0
:104FE00000F070F8042000F06DF80D2000F06AF871
:104FF000112000F067F8132000F064F82B2000F077
:1050000061F83F2000F05EF8542000F05BF84C207F
:1050100000F058F8182000F055F80D2000F052F874
:105020000B2000F04FF81F2000F04CF8232000F078
:1050300049F8E12000F04CF8D02000F043F80420BB
:1050400000F040F80C2000F03DF8112000F03AF894
:10505000132000F037F82C2000F034F83F2000F047
:1050600031F8442000F02EF8512000F02BF82F20CA
:1050700000F028F81F2000F025F81F2000F022F88B
:10508000202000F01FF8232000F01CF8212000F061
:105090001FF8292000F01CF810BD00000004024099
:1050A00038B50446200A8DF80000E0B28DF8010002
:1050B0000123022269460248FEF7E0F938BD0000EC
:1050C000F84A002010B50446204600F015F810BD3F
:1050D00010B5044600224FF400710648FDF79AFC13
:1050E000204600F009F8012251020248FDF792FC27
:1050F00010BD00000004024001B501231A466946B4
:105100000148FEF7BBF908BDF84A002004E029F089
:1051100027FB05202FF038FFF9E7000070B50446A3
:10512000002507E04FF6FF73012221460448FEF7F1
:105130000BFC6D1C14F8011B0029F3D1284670BD2F
:10514000B44A00200FB438B5002405A80090009997
:10515000049806F01DFB044600200090204638BC51
:105160005DF814FBF8B505460E461746684600F094
:1051700044F804460CB12046F8BD0DF1010000F0E2
:1051800045F804460CB12046F6E79DF801009DF86D
:10519000001000EB012000B22880684600F03FF8C4
:1051A00004460CB12046E7E70DF1010000F040F89D
:1051B00004460CB12046DFE79DF801009DF8001081
:1051C00000EB012000B23080684600F03AF8044657
:1051D0000CB12046D0E70DF1010000F03BF8044689
:1051E0000CB12046C8E79DF801009DF8001000EBC7
:1051F000012000B238800020BEE770B50446214689
:105200003B2000F0B9F80546284670BD70B504464D
:1052100021463C2000F0B0F80546284670BD70B528
:10522000044621463D2000F0A7F80546284670BDFB
:1052300070B5044621463E2000F09EF805462846FB
:1052400070BD70B5044621463F2000F095F8054634
:10525000284670BD70B504462146402000F08CF809
:105260000546284670BD70B504462146752000F0FD
:1052700083F80546284670BD70B5044621466B206C
:1052800000F07AF80546284670BD38B5044600257A
:10529000684600F013F805460DB1284638BD0DF1FB
:1052A000010000F014F805469DF801009DF800107B
:1052B00000EB012000B220802846EFE770B50446DD
:1052C0002146412000F058F80546284670BD70B5CB
:1052D00004462146422000F04FF80546284670BD9E
:1052E00070B502F079FB104810490D682ECD2EC024
:1052F00010380F490860D0200968087380216B209E
:1053000000F0A6F804464FF4FA7009F04FF80821AF
:105310001B2000F09DF800F092F804460CB12046E6
:1053200070BD0020FCE70000C84F0020A400002052
:10533000F400002038B50D240DE06946204600F049
:105340001BF805462DB99DF80020214604A0FFF763
:10535000F9FE601CC4B2752CEFDD284638BD000094
:10536000205265673A202568687520446174613A67
:1053700020256868750D0A0070B505460E46284858
:105380000068FFF7B4FB26480068017B24480068EA
:1053900013F018FC22480068FFF7E7FB04462CB125
:1053A0001F480068FFF7C2FB204670BD29461C4815
:1053B000006813F007FC1A480068FFF7D6FB0446A4
:1053C0002CB117480068FFF7B1FB2046EDE7144801
:1053D0000068FFF78CFB12480068007B40F0010179
:1053E0000F48006813F0EEFB0D480068FFF7BDFBA7
:1053F00004462CB10A480068FFF798FB2046D4E722
:105400000748006813F0A7FB307005480068FFF7F5
:1054100056FB03480068FFF789FB0020C5E7000042
:10542000F400002010B5E0211C2000F011F8044623
:10543000E0211B2000F00CF80446204610BD10B5FA
:1054400020216B2000F004F80446204610BD000027
:1054500070B505460E461F480068FFF748FB1D481B
:105460000068017B1B48006813F0ACFB194800681A
:10547000FFF77BFB04462CB116480068FFF756FB8C
:10548000204670BD29461348006813F09BFB114865
:105490000068FFF76AFB04462CB10E480068FFF76E
:1054A00045FB2046EDE731460A48006813F08AFBC9
:1054B00008480068FFF759FB04462CB1054800680E
:1054C000FFF734FB2046DCE702480068FFF72EFBBD
:1054D0000020D6E7F40000202DED068B86B04FF4B7
:1054E0007A702FF051FD05A8FFF7BDFE04462CB9D8
:1054F0009DF814102FA0FFF725FE02E033A0FFF760
:1055000021FEFFF78FFFFFF715FF52E002AA03A964
:1055100004A8FFF727FE04464CB9BDF90830BDF9D1
:105520000C20BDF9101030A0FFF70CFE02E038A0EF
:10553000FFF708FE01A8FFF79FFE044624B99DF877
:1055400004103BA0FFF7FEFD6846FFF79EFE0446F1
:10555000BDF9000000EE100AB8EEC00A10EE100A05
:1055600031F058FD41EC1A0B9FED390B53EC102B29
:1055700031F03EF841EC190B9FED370B53EC102B3B
:1055800030F07AFF41EC180B30F044FF05464CB97F
:10559000284631F03FFD41EC180B53EC182B30A09E
:1055A000FFF7D0FDFFF7C6FE41F288302FF0ECFC8C
:1055B00000BFABE720476574204D5055363035307D
:1055C0002049443A20256868750D0A002047657413
:1055D000204D505536303530204944204661696CA5
:1055E0006564210D0A00000020476574204D505568
:1055F0003630353020414343454C3A20583A2568EF
:105600006420593A256864205A3A2568640D0A00D6
:1056100020476574204D5055363035302041434386
:10562000454C204661696C6564210D0A000000004C
:1056300020476574204D50553630353020536C6509
:10564000657053746174653A20256868750D0A00A9
:105650000000000000407540A4703D0AD74342405E
:1056600020476574204D5055363035302054656DD7
:10567000703A2025660D0A0008B500BF0020009092
:105680001248006840F4800010490860084600682D
:1056900000F48000009000BF00BF002205213A20E6
:1056A000FDF722FA3A20FDF712FA002205214420E4
:1056B000FDF71AFA4420FDF70AFA002205214620D8
:1056C000FDF712FA4620FDF702FA08BD3038024015
:1056D00008B500BF002000901448006840F48050D6
:1056E000124908600846006800F48050009000BF2E
:1056F00000BF0F480F4908604FF4827048600021D6
:105700000C488160C16002210161012141614902AF
:1057100081610021C1610162416281620A21C1622D
:10572000FDF7D1FD08B1FCF7E9FD08BD44380240A2
:1057300000300140F84A002010B50B480B490860C2
:105740004FF4E1304860002108488160C160016188
:105750000C21416100218161C161FEF777F808B138
:10576000FCF7CCFD10BD000000100140B44A002041
:1057700000BFFEE708B500200090694604480068B5
:1057800030F0EEF869460348006830F0E9F808BDEB
:1057900060050020680500202DE9F04105462846F7
:1057A0001CF0AFFA044628461CF00CFB06460C2CF5
:1057B00020D11EF0ABF807461EF0AEF8012803D149
:1057C000114801F06BFC15E01EF0A0F807461EF032
:1057D000A3F808280ED01EF099F807461EF09CF892
:1057E000042807D00A2C05D10848006821F05EFF84
:1057F00007490880072C05D10448006821F056FFAE
:1058000003490880BDE8F081200400201C0400202A
:10581000EC04002008B5002020F0C6FFFE49086017
:1058200000231A46FD49FC48006820F093F9FA4825
:10583000006820F0B9FFFA490860F021F8480068D4
:1058400025F041FB4621F648006824F08EFF022136
:10585000F348006824F034FF1021F148006820F07C
:10586000DDFE00221146EE48006825F0C1FA6FF017
:105870007F4018F05AFA002201460090E84800687C
:1058800025F0ABF900221146E548006825F0C2F981
:10589000002018F04AFA002201460090E048006813
:1058A00025F0C4F900221146DD48006825F0CEF944
:1058B000DC4818F03AFA202201460090D8480068E7
:1058C00025F08BF920226421D548006825F0A2F943
:1058D000D348006816F064FDD34908602821D248F7
:1058E000006825F0F0FA2821CF48006824F03DFF39
:1058F0000721CD48006824F0E3FE4FF48061CA48D8
:10590000006820F06FF91221C748006820F086FE79
:1059100000222821C448006825F06AFAC34818F01C
:1059200004FA002201460090BF48006825F055F9AE
:105930000022FF21BC48006825F06CF9BA480068D5
:105940001EF0F2FBBA49086042F2D171B848006813
:1059500025F0B9FA42F2D171B548006824F005FF8C
:105960000921B348006824F0ABFEB2A1B04800683A
:105970001FF0E2FB0022B049AD48006825F062FA52
:10598000A74800681EF0D0FBAC49086042F2D17114
:10599000AA48006825F097FA42F2D171A74800683A
:1059A00024F0E3FE3C21A548006825F0A5FA00217B
:1059B000A248006825F0B9FA0721A048006824F041
:1059C0007FFE9FA19D4800681FF0B6FB00229E4904
:1059D0009A48006825F036FA8F48006820F0E4FE07
:1059E0009A490860F0219948006825F06CFA462130
:1059F0009648006824F0B9FE00219448006825F01C
:105A00007BFA46219148006825F08FFA02218F48E1
:105A1000006824F055FE10218C48006820F0FEFD3F
:105A2000002211468948006825F0E2F96FF07F40B6
:105A300018F07BF90022014600908448006825F0A8
:105A4000CCF8002211468148006825F0E3F80020D8
:105A500018F06BF90022014600907C48006825F0A0
:105A6000E5F8002211467948006825F0EFF86D4806
:105A700018F05BF92022014600907448006825F078
:105A8000ACF8202264217148006825F0C3F86F4803
:105A9000006816F085FC6E49086028216C48006893
:105AA00025F011FA28216A48006824F05EFE0721DB
:105AB0006748006824F004FE4FF480616448006881
:105AC00020F090F812216248006820F0A7FD002223
:105AD00028215F48006825F08BF95E4818F025F909
