:020000040800F2
:100000008892012059030008ED720008E73A0008C1
:10001000FD590008C91B0008FB8100080000000012
:10002000000000000000000000000000990200082D
:10003000D322000800000000F5020008ED7C000853
:1000400073030008730300087303000873030008B8
:1000500073030008730300087303000873030008A8
:100060007303000873030008D52200087303000817
:100070007303000873030008730300087303000888
:1000800073030008730300087303000800000000F6
:100090000000000000000000000000000523000830
:1000A0007303000873030008730300087303000858
:1000B000C97D000873030008730300087303000878
:1000C0007303000873030008730300087303000838
:1000D00073030008730300087303000800000000A6
:1000E0007303000873030008730300080000000096
:1000F0000000000000000000000000007303000882
:100100000000000073030008730300087303000875
:1001100000000000000000000000000000000000DF
:100120007303000873030008B92100087303000873
:100130007303000800000000000000000000000041
:100140000000000000000000000000007303000831
:1001500073030008730300087303000873030008A7
:100160007303000873030008000000000000000093
:10017000000000000000000000000000000000007F
:1001800000000000730300080000000000000000F1
:10019000730300087303000800F002F800F06CF825
:1001A0000AA090E8000C82448344AAF10107DA45D2
:1001B00001D100F061F8AFF2090EBAE80F0013F0B8
:1001C000010F18BFFB1A43F001031847106F050019
:1001D000306F05000A444FF0000C10F8013B13F09B
:1001E000070408BF10F8014B1D1108BF10F8015B90
:1001F000641E05D010F8016B641E01F8016BF9D183
:1002000013F0080F1EBF10F8014BAD1C0C1B09D1D9
:100210006D1E58BF01F801CBFAD505E014F8016B4B
:1002200001F8016B6D1EF9D59142D6D370470000DD
:100230000023002400250026103A28BF78C1FBD8EF
:10024000520728BF30C148BF0B607047662937F09E
:100250008C83642900F05681002070471FB537F069
:100260007AFB00F00BFE04000020002136F0E0FCD9
:10027000E0601FBD10B510BD00F001FF1146FFF793
:10028000EDFF2FF015FC00F01FFF03B4FFF7F2FFA6
:1002900003BC00F0EDFD00002C4B19680868B0E8C5
:1002A000F04F80F30988BFF36F8F4FF0000080F3A9
:1002B000118870470000000008480068006880F35B
:1002C00008884FF0000080F3148862B661B6BFF36F
:1002D0004F8FBFF36F8F00DF00BF00BF08ED00E05E
:1002E000DFF80C00016841F470010160704700BF45
:1002F00088ED00E0EFF30980BFF36F8F134B1A68AE
:100300001EF0100F08BF20ED108A20E9F04F10609A
:1003100009B44FF0500080F31188BFF34F8FBFF343
:100320006F8F35F097FB4FF0000080F3118809BC08
:1003300019680868B0E8F04F1EF0100F08BFB0EC65
:10034000108A80F30988BFF36F8F70470000002088
:10035000EFF30580704700000948804709480047CF
:10036000FEE7FEE7FEE7FEE7FEE7FEE7FEE7FEE765
:10037000FEE7FEE704480549054A064B70470000C2
:10038000B57D00089901000888800120889201202D
:10039000889001208890012053EA020C00F06980C7
:1003A0002DE9F04B4FF00006002B1FBFB3FA83F589
:1003B00003FA05F424FA05F65E4012BF1643B2FABA
:1003C00082F502FA05F4C5F120051EBF22FA05FCEC
:1003D00044EA0C04203556EA044C4FEA144418BF92
:1003E000641C4FF000084FF00009904271EB030CC1
:1003F00039D3002919BFB1FA81F701FA07F6B0FA2B
:1004000080F700FA07F6C7F120071EBF20FA07FCA5
:1004100046EA0C062037B6FBF4FCA7EB0507103FB5
:1004200007F01F0BCBF120060CFA0BFB2CFA06F69B
:1004300044BFB3460026202FA4BF5E464FF0000BFA
:100440005BEA060C08BF4FF0010B19EB0B09ABFB85
:10045000027C48EB0608C01B06FB02CC0BFB03CC5E
:1004600071EB0C01C1E70B46024641464846BDE828
:10047000F08B13B54FF000004FF00001AFF3008098
:10048000BDE81C40704700000FB41CB5084B06AA1D
:100490007B4469460090059800F0D1FC044600209A
:1004A000694600F0DFFC20461CBC5DF814FB000030
:1004B000D109000070B5044685690068C10601D500
:1004C000302600E02026C00707D070BDD4E9012106
:1004D00030469047206A401C20626D1EF6D570BDE4
:1004E00070B5044685690078C00707D170BDD4E9AE
:1004F000012120209047206A401C20626D1EF6D505
:1005000070BD00002DE9F0410646002410687529F1
:10051000314616A510D0AFF30080002802DA404221
:1005200013A507E031688A0701D512A502E0490743
:1005300004D511A5012401E0AFF3008000210A22B7
:1005400006F1240709E0B0FBF2FCB0FBF2F302FB7A
:100550001C00303078541846491C0028F3D123463B
:100560002A463046BDE8F04100F0FEB90000000028
:100570002D0000002B000000200000002DE9F05F9E
:10058000894604464FF0000ADFF824B1FB44C0F866
:1005900020A02046E168884700287DD0252806D085
:1005A000D4E901219047206A401C2062F1E7002530
:1005B0005F462046E16888472028064607DB312E43
:1005C00005D2B81910F8200C08B10543F1E7A807C7
:1005D00001D525F00405C4F81CA00027C4F818A014
:1005E0002A2E09D0304609F057FB38B304EB8708B0
:1005F000303EC8F8186019E059F8041B204604EB97
:1006000087029161E1688847012F064618D1E069A9
:10061000002820DA25F020051DE0D8F8180000EBAE
:10062000800006EB40003038C8F818002046E1682A
:100630008847064609F030FB0028EED1012F0AD08A
:100640002E2E08D12046E16888477F1C0646022FDF
:1006500045F02005C4DBA069002803DA404245F0DC
:100660000105A061E80701D025F01005A6B1A6F1AB
:100670004100192802D8203645F400654A46314623
:10068000204625604D46FFF7E1FD60B1012807D007
:10069000ED1D25F0070000E007E000F1080978E70C
:1006A00005F1040975E730467AE7206ABDE8F09F56
:1006B0002063050040EA0103024630B59B0710D1D4
:1006C0004FF0013400E008C208C91D1B9D4315EA24
:1006D000C41FF8D013F0FF0102F8011B0DD01B0A54
:1006E000F8E711F8013B002B02F8013B05D011F8A7
:1006F000013B002B02F8013BF3D130BD10B5431C88
:1007000002E010F8011B71B18107FAD14FF00132FC
:1007100002C88C1A8C4314EAC211F9D0C01A0A0616
:1007200003D0C01E10BDC01A10BD0A0401D0801E27
:1007300010BD0902FCD0401E10BD032A40F23080DB
:1007400010F0030C00F0158011F8013BBCF1020F12
:10075000624498BF11F801CB00F8013B38BF11F893
:10076000013BA2F1040298BF00F801CB38BF00F8AA
:10077000013B11F0030300F02580083AC0F0088027
:1007800051F8043B083A51F804CBA0E80810F5E70B
:10079000121D5CBF51F8043B40F8043BAFF30080EE
:1007A000D20724BF11F8013B11F801CB48BF11F863
:1007B000012B24BF00F8013B00F801CB48BF00F833
:1007C000012B704710B5203AC0F00B80B1E81850EB
:1007D000203AA0E81850B1E81850A0E81850BFF42B
:1007E000F5AF5FEA027C24BFB1E81850A0E81850CA
:1007F00044BF18C918C0BDE810405FEA827C24BF1E
:1008000051F8043B40F8043B08BF7047D20728BFAB
:1008100031F8023B48BF11F8012B28BF20F8023BFA
:1008200048BF00F8012B704702F0FF0343EA0322A0
:1008300042EA024200F002B84FF000020429C0F080
:10084000128010F0030C00F01B80CCF1040CBCF102
:10085000020F18BF00F8012BA8BF20F8022BA1EB54
:100860000C0100F00DB85FEAC17C24BF00F8012B39
:1008700000F8012B48BF00F8012B70474FF0000231
:1008800000B5134694469646203922BFA0E80C5086
:10089000A0E80C50B1F12001BFF4F7AF090728BF61
:1008A000A0E80C5048BF0CC05DF804EB890028BFDD
:1008B00040F8042B08BF704748BF20F8022B11F006
:1008C000804F18BF00F8012B704700004FF0013C2B
:1008D00050F8042B51F8043B9A4221D1A2EB0C03AF
:1008E000934313EACC1317D150F8042B51F8043B6F
:1008F0009A4215D1A2EB0C03934313EACC130BD10C
:1009000050F8042B51F8043B9A4209D1A2EB0C0396
:10091000934313EACC13DBD04FF00000704700BFC5
:10092000D01A01BAB1FA81F101F0180122FA01F0EE
:10093000CB40C1F12001DBB2C0B2C01A2CFA01F3E6
:10094000D11A914311EAC311E6D17047704770473D
:10095000704710B500F096FA006810BD10B5044657
:1009600000F090FA046010BD2DE9F0470D4699465D
:100970009246044600F124080168880604D5E0691F
:1009800021F01001216000E00120A84201DD471B99
:1009900000E00027A1697A1902EB0900081AA0619A
:1009A0002078C00602D42046FFF784FD002608E028
:1009B000D4E901211AF806009047206A401C761CF1
:1009C00020624E45F4DB2078C0060AD52046FFF7AA
:1009D00071FD06E0D4E9012130209047206A401CD7
:1009E0002062381EA7F10107F4DC07E0D4E90121F9
:1009F00018F805009047206A401C2062281EA5F1C7
:100A00000105F3DC2046FFF76BFD2078000602D5D8
:100A10000220BDE8F0870120FBE770472DE9FF4F7A
:100A20000C461E464FF0FF378BB0D2E90001DDF8CF
:100A300060800A908A46C1F30A5505B93D460021F7
:100A400008464FF00000BAF1000F00F4400005DA4C
:100A500000EB80004FF4400101EA50004FEA90594A
:100A6000B9F1010F00DDB9460A9850EA4A000ED0EC
:100A700044F61050A5F2FF3545432F14B8F1000F8E
:100A80001ED07542291E1EDDC9F100021CE0B8F11E
:100A9000010F4FF0000001D0302103E0F24305E0E8
:100AA0002154401CB042FBDB30460022002121547F
:100AB0000B99C1F80880C1E900200FB0BDE8F08FA4
:100AC000BD1B6D1CDEE74A4600DA694206A800F04D
:100AD00063FA06AB93E8070003AB83E807005046D0
:100AE0000A9900F0F7FA8DE80700A0F500501F38CA
:100AF00000900398002D09DD42F21F014A46084488
:100B000003A90390684600F056FD08E0A0F50050E8
:100B10004A461F3803A90390684600F060FD8DE83F
:100B200007000004000C03D04FF0FF30410800E044
:100B30001046B8F1000F03D00022009215461EE0C7
:100B4000751E05D400F0A2F9303262556D1EF9D53C
:100B5000B3460122084302D000227F1C04E0207823
:100B6000302801D100227F1E002A099786D01DE07F
:100B7000112D07DA00F08AF9303262556D1C50EA07
:100B80000102F5D1084302D00098C8B10EE000215F
:100B9000681E05E0235C625C63542254401E491CBD
:100BA0008142F7DBAB46A81B401E0990002004F8E9
:100BB0000B000B98099AC0F80880C0E9002B7CE76D
:100BC00011264FF0000859E72DE9F04F88460446FA
:100BD000D21D22F0070191B0D1E90001CDE90A014F
:100BE00007F04FFB02460B98C00F01D02D2007E005
:100BF0002068810701D52B2002E0202101EAC000F6
:100C0000032A099001D0072A05DB03464146204606
:100C100000F082F90BE12078800601D5E06900E060
:100C20000620B8F1650F814606D0B8F1660F18D0DE
:100C3000B8F1670F70D131E00020B9F1110F0090C9
:100C400001DB112301E009F101030AAA01A90CA8A3
:100C5000FFF7E4FEDDE90C70002609F1010583468B
:100C600047E001204B4600904FF000470AAA01A937
:100C70000CA8FFF7D3FEDDE90DB00C995D46002608
:100C800010B909F101000D18B9EB050003D4C0F14A
:100C9000FF3609F10105A5EB09002BE0B9F1010FC1
:100CA00001DA4FF001090020B9F1110F0090484618
:100CB00001DD112300E003460AAA01A90CA8FFF7F1
:100CC000ADFEDDE90C704D46002683462078000716
:100CD0000AD4AB4500DA5D4601A8012D04DD4119B7
:100CE00011F8011C302907D04F4502DA17F1040F23
:100CF00004DA012082460FE06D1EEEE7002F02DCD1
:100D0000ED1B3E4403E0781CA84200DD7D1CB81BAF
:100D100000F1010A4FF000472078000703D4AA45EC
:100D200001DB4FF0FF3A0021B7F1004F0DF143080E
:100D30008DF8431024D002202B23002F01DA7F42AC
:100D40002D230A21021EA0F1010000DC5FB197FBF8
:100D5000F1FC97FBF1F201FB1C7C17460CF1300C07
:100D600008F801CDEEE7A8F101000370218809051C
:100D700001D5452100E06521A0F1010800F8011C22
:100D800009980FA9A1EB0807FF1D00B10120411927
:100D900001EBEA70A1693844081A401EA06120786E
:100DA000C00602D42046FFF785FB099828B1D4E994
:100DB00001219047206A401C20622078C00622D57D
:100DC0002046FFF777FB1EE0002E04DBB34502DD73
:100DD00001A8805D00E03020D4E901219047206A1D
:100DE000401C2062761CAAF101005FEA000A0AD1C9
:100DF00000F044F8C0680168405CD4E901219047E4
:100E0000206A401C2062281EA5F10105DCDC07E0F9
:100E1000D4E9012118F8010B9047206A401C206298
:100E2000381EA7F10107F3DC2046FFF759FB03202A
:100E300011B043E601694A1C02610878704700B5A9
:100E40008FB0CDE901310021059105497944CDE903
:100E5000031011466846FFF791FB0FB000BD00007C
:100E6000E5FFFFFF0A6802F8010B0A607047000007
:100E700001491820ABBEFEE726000200004870477B
:100E800048800120004870472880012030B5B0F12B
:100E90000A024FEA900E71F100034EEA817EB0EB38
:100EA0000E0061EB91014FEA101E4EEA017E10EB3D
:100EB0000E0041EB11114FEA102E4EEA016E10EBBD
:100EC0000E0041EB11214FEA104E4EEA014E10EB9D
:100ED0000E0041EB1141401841F100014FEAD000F2
:100EE00040EA41704FEAD10110EB80054FEA8104DE
:100EF00044EA907444EB01046D1944EB0404521B62
:100F0000A3414FF0000348BF0A3200D530BD401C5A
:100F100041F1000130BD00002DE9F0411F460446BB
:100F200003260168072A01F4006004DB08B116A556
:100F300005E016A503E008B115A500E015A521F010
:100F400010002060A069C01EA0610FB1401EA0610A
:100F50002046FFF7AFFA4FB1D4E901213846904758
:100F6000206A401C2062C01C206206E0206AFAE76A
:100F7000D4E9012115F8010B9047761EF8D22046DE
:100F8000FFF7AEFABDE8F0814E414E006E616E0093
:100F9000494E4600696E66002DE9F04781461646C7
:100FA0008AB0334878440DC88DE80D003048784445
:100FB000801C03AC0DC884E80D0041F69B3008444A
:100FC000372190FBF1F290FBF1F5A5F1800501FBD3
:100FD00012041B3C02D56442012000E00020DFF82F
:100FE00090A080460027FA44AAF1BE0A0DE0E0076F
:100FF00009D03246684607EB47010AEB810100F051
:10100000EEFA8DE8070064107F1C002CEFD1184F1A
:101010007F44AC3F18E0E80714D007EB04100DF153
:10102000180A90E80E008AE80E00C068F04201D16C
:1010300098190890324606A903A800F0D0FA03AB2D
:1010400083E807006D10641C002DE4D13246694628
:10105000B8F1000F03A802D000F0ADFA01E000F0F3
:10106000BEFAC9E90001C9F808200AB0BDE8F08756
:10107000045C0500004870472880012070477546D1
:10108000FFF7F8FFAE4605006946534620F007001B
:10109000854618B020B5FFF76DF9BDE820404FF048
:1010A00000064FF000074FF000084FF0000B21F052
:1010B0000701AC46ACE8C009ACE8C009ACE8C0091F
:1010C000ACE8C0098D4670470446AFF30080204667
:1010D000FFF7DBF85FEA400C08BF91F0000F4FEA22
:1010E0008C234FEAC12243EA51514FEA1C5018BFEA
:1010F00000F5F0404FEA300018BF41F000415FEAD0
:101100006C5C00F02980BCF1FF3F08BF40F08040DC
:101110007047130C06BF12044FF0100C4FF0000C78
:10112000130E04BF12020CF1080C130F04BF1201BE
:101130000CF1040C930F04BF92000CF1020CD30FBE
:1011400004BF52000CF1010C11464FF00002A0F157
:101150001F00A0EB0C00704711F0004F08BF704754
:1011600031F000413FF4D5AF0B0C06BF09044FF03E
:10117000100C4FF0000C0B0E04BF09020CF1080C10
:101180000B0F04BF09010CF1040C8B0F04BF890085
:101190000CF1020CCB0F04BF49000CF1010CCCF197
:1011A0002003A0EB0C0022FA03F302FA0CF241EA4E
:1011B000030100F10100704720F07F4C80EA03003A
:1011C00023F07F47ACEB070303F57C5300F00040AE
:1011D00003F1FF032DE980494FEA154B09B44FEAAB
:1011E000144325EA0B4E24EA03480FF2042606EBCB
:1011F000132749083E785FEA320203FB0667C7F50A
:10120000000707FB06F64FEA54374FEAD64606F1C9
:10121000020607FB066CCCF1005C4FEA1C472CEA87
:10122000074C07FB06F40CFB06F504EB15464FEAEA
:10123000961634BF00204FF000404FEAD13706FB2E
:1012400007FC4FEA1C4C0CFB0BF7D21B03FB0CF703
:1012500061EB07010CFB0EF7B0EB074072EB174296
:101260000CFB08F734BFA2EB0742B2EB074261EB7D
:1012700017414FEA0C444FEA910706FB07FC4FEA7F
:101280001C4C0CFB0BF7B0EBC74072EB573203FB67
:101290000CF734BFA2EBC742B2EBC74261EB573148
:1012A0000CFB0EF7B0EBC70072EB57720CFB08F7A4
:1012B00034BFA2EBC702B2EBC70261EB5771039FC9
:1012C0004FEA816141EA921104EBCC044FEAD13735
:1012D0004FEA826206FB07FC42EA90124FEA806006
:1012E0004FEA1C4C0CFB0BF7D21B03FB0CF761EB1A
:1012F00007010CFB0EF7B0EB074072EB17420CFB3B
:1013000008F734BFA2EB0742B2EB074261EB17418B
:101310004FEA8C554FEA910704EB9C2406FB07FC2F
:101320004FEA1C4C0CFB0BF7B0EBC74072EB57328B
:1013300003FB0CF734BFA2EBC742B2EBC74261EB31
:1013400057310CFB0EF7B0EBC70072EB57720CFB7A
:1013500008F734BFA2EBC702B2EBC70261EB5771CB
:1013600015EB4C254FEA816141EA92114FEA826206
:101370004FEAD13742EA901206FB07FC44F1000421
:101380004FEA80604FEA1C4C0CFB0BF7D21B03FBAF
:101390000CF761EB07010CFB0EF7B0EB074072EBAB
:1013A00017420CFB08F734BFA2EB0742B2EB07422F
:1013B00061EB174115EB1C154FEA813141EA92416F
:1013C0004FEA823242EA90424FEA80304FEA0C768E
:1013D00044F1000448EA03434EEA0B484FF0000E84
:1013E000B2EB080C71EB030724BF624639464EEBA3
:1013F0000E0E4FF0000B0018524149414BEB0B0B06
:10140000B2EB080C71EB03077BF1000B24BF6246C3
:1014100039464EEB0E0E4FF0000B00185241494179
:101420004BEB0B0BB2EB080C71EB03077BF1000BE2
:1014300024BF624639464EEB0E0E51EA020718BF32
:1014400046F0010616EB0E7655F1000254F100014C
:1014500003D5BDE88901BDE80088BDE88901BDE884
:101460000048B619524141EB0101A3F10103704755
:1014700080807F7E7D7C7B7A7978777676757473D1
:10148000727171706F6E6E6D6C6C6B6A6A69686890
:10149000676666656464636362616160605F5F5E26
:1014A0005E5D5D5C5C5B5B5A5A595958585757569C
:1014B0005655555554545353525252515150505001
:1014C0004F4F4F4E4E4D4D4D4C4C4C4B4B4B4A4A53
:1014D0004A49494948484847474747464646454597
:1014E00045444444444343434342424242414141D0
:1014F000002B26D4770021D01CB54FEA370703B460
:101500004FF010004FF010014FF000000FBCBDE88D
:1015100010400BF1010BBBF1010F08BF5FEA170789
:1015200022BF12F1010211F101014FF0004143F11C
:10153000000300F0004043EA00007047F9D3570869
:10154000DAE746EA064613F1400F4FEA16461FDD7A
:1015500013F1200FDFBF16430A46002120335B4200
:10156000C8D0C3F1200746EA064602FA07F74FEA59
:10157000164646EA0706C3F1200722FA03F201FAEB
:1015800007F721FA03F14FF0000342EA0702B1E73F
:1015900046EA020646EA06464FEA164646EA0106CB
:1015A000BCBF46EA0646360C4FF000034FF000027F
:1015B0004FF000019EE72DE9C048934630B491E812
:1015C000380007C831EA400C48BF34EA430C03D561
:1015D000FFF7F2FDFFF78CFFF0BCBDE800882DE9B6
:1015E000C048934630B491E8380007C810F0804FE7
:1015F00008BF13F0804F03D100F005F8FFF778FF24
:10160000F0BCBDE8008820F07F4780EA030023F0AB
:101610007F4C07EB0C03A3F57C5300F00040A3F1D3
:10162000FE0392F0000F00F0B38095F0000F00F081
:1016300077802DE901494FEA11404FEA144621EA2B
:10164000004800FB06FC24EA064708FB06F607FBF9
:1016500008F800FB07F718EB06484CEB164C4FEA6E
:10166000124B18EB07484FEA15464CEB174022EA9D
:101670000B4E0BFB06FC25EA06470EFB06F607FBA6
:101680000EFE0BFB07F71EEB064E4CEB164C4FF015
:1016900000061EEB074E4CEB174B18EB0B0840F106
:1016A000000018EB0E0B58EB000840F100008F1AF9
:1016B0004FF000013CBFC943661B14BFB5EB040CDF
:1016C00000213CBFC943F61B4FEA17444EEA8E0E79
:1016D00027EA04454FEA1C4704FB07622CEA074C43
:1016E00005FB07F70CFB05F604FB0CFC16EB0746A5
:1016F00042EB174216EB0C4642EB1C421BEB060674
:1017000058EB0202414146EA9E0601D5BDE8018937
:10171000B619524141EB0101A3F10103BDE8018972
:101720004FEA14454FEA114724EA054621EA074CDF
:1017300005FB07F406FB07F70CFB06F105FB0CFCA9
:1017400011EB074144EB17444FEA124711EB0C41F0
:1017500044EB1C4422EA074C05FB07F206FB07F7A3
:101760000CFB06F605FB0CFC16EB074642EB17429A
:1017700016EB0C4642EB1C456A1854F1000148BFB9
:101780007047B619524141EB0101A3F101037047C3
:1017900095F0000F37D04FEA11424FEA144721EA83
:1017A000024624EA074C02FB07F106FB07F70CFB95
:1017B00006F402FB0CFC14EB074441EB17414FEA23
:1017C000154714EB0C4441EB1C4125EA074C02FB86
:1017D00007F506FB07F70CFB06F602FB0CFC16EB05
:1017E000074645EB174516EB0C4645EB1C42121914
:1017F00051F1000148BF7047B619524141EB010158
:10180000A3F1010370474FEA14454FEA114724EA58
:10181000054621EA074C05FB07F106FB07F70CFB21
:1018200006F24FF0000605FB0CFC12EB074241EB01
:10183000174112EB0C4251EB1C4148BF7047921804
:1018400041EB0101A3F101037047000010B506F060
:1018500015FA2948294908600846006828490C6893
:101860001ECC1EC0702025490968087328200DF081
:10187000E1F900F03FFB002070B32048006803F05E
:101880009CF970211D48006803F052F91B4800685C
:1018900003F0D1F9BE211948006803F049F917484F
:1018A000006803F0C8F908211448006803F040F903
:1018B0001248006803F0BFF900211048006803F0E7
:1018C00037F90E48006803F0B6F90C48006803F0D9
:1018D00093F90A200DF0AEF903220021012034F023
:1018E000A7FA0849086003220021012034F0A0FA79
:1018F0000549086010BD0000A44F002088000020AA
:101900008C0000205C0500206005002070B52DEDE6
:101910000A8B86B004460D4601269FED6F0BB0EE94
:10192000408AF0EE608A9FED6C0BB0EE409AF0EECC
:10193000609A6B48006803F040F969480068007BD2
:1019400040F001016648006817F080FD64480068B7
:1019500003F071F9064646B16148006803F04CF99E
:10196000032006B0BDEC0A8B70BD5D48006817F01F
:1019700036FD5B48006803F0C3F85948006817F06B
:101980002EFD01905648006803F0BAF854480068EC
:1019900017F025FD02905248006803F0B1F8504856
:1019A000006817F01CFD03904D48006803F0A8F88C
:1019B0004B48006817F013FD04904948006803F095
:1019C0009FF84748006817F00AFD059044480068F2
:1019D00003F0DBF84248006803F00EF901990803B0
:1019E00035F002FC41EC180B0299080135F0FCFBC4
:1019F00041EC1A0B53EC182B35F06EF941EC180B37
:101A00000399080935F0F0FB41EC1A0B53EC182B45
:101A100035F062F941EC180B9FED321B9FED330B53
:101A200006F0BEFEB0EE40BAF0EE60BA53EC1B2BEF
:101A300051EC180B35F00CFA41EC1A0B9FED2D0B05
:101A400053EC102B35F020FC41EC180B84ED008B8F
:101A500003990907080B35F0C7FB41EC190B0499F2
:101A6000080235F0C1FB41EC1A0B53EC192B35F091
:101A700033F941EC190B059835F0B6FB41EC1A0B24
:101A800053EC192B35F028F941EC190B9FED151B80
:101A90009FED160B06F084FEB0EE40CAF0EE60CA71
:101AA00053EC1C2B51EC190B35F0D2F941EC1B0B0C
:101AB0009FED120B53EC102B35F0E6FB41EC1A0BAB
:101AC0009FED100B53EC102B35F0EAFD41EC190B98
:101AD00085ED009B002044E70000000000000000AE
:101AE00088000020000000000000344000000000DA
:101AF000000000400000000000005940000000000D
:101B000000006940000000000000494010B50124B9
:101B10001B48006803F051F819480068017B184819
:101B2000006817F093FC1648006803F084F8044638
:101B30002CB11348006803F05FF8022010BDAC21FF
:101B40000F48006817F082FC0D48006803F073F836
:101B500033210B48006817F079FC0948006803F04E
:101B60006AF800210648006817F070FC0448006815
:101B700003F061F80248006803F03EF80020DDE75A
:101B80008800002019E04FF0FF310C48006834F065
:101B90003BFC012811D10EE00949886880474FF4C9
:101BA000FA6033F021FE00210648006834F02CFC76
:101BB000012800D100E0EFE700BFE4E75C0500206A
:101BC000480500206005002000BFFEE710B5044670
:101BD0002146F92000F078F810BD000000B587B06C
:101BE000142102A8FEF74AFE00BF00200190194808
:101BF000006840F00200174908600846006800F0DD
:101C00000200019000BF00BF00BF00200190084605
:101C1000006840F0010008600846006800F001001C
:101C2000019000BF00BF4FF40040029001200390DC
:101C300004900320059002A9074800F061FE0122EC
:101C4000D103054800F052FF044803F021F807B023
:101C500000BD00003038024000000240CC000020EF
:101C600010B5022000F026F810BD00001CB501A838
:101C700004230322152100900C4803F03BF89DF843
:101C800005009DF8041001F00F0140EA0120084909
:101C900008609DF807000F309DF8061001F00F0155
:101CA00040EA0120024948601CBD0000CC00002031
:101CB000C400002010B5044622461521014803F057
:101CC00060F810BDCC00002070B504460D462B46D0
:101CD00022461521024803F085F8064670BD000033
:101CE000CC00002010B5FFF779FF0520FFF76EFF4D
:101CF00010BD02462A2A0AD02B2A04D02D2A04D04D
:101D00002F2A14D10BE0002070470020FCE72B297C
:101D100001D02D2901D10120F6E70020F4E72B297D
:101D200001D02D2901D10120EEE70020ECE700BF12
:101D300000BF00BFE8E700003149B1F89011491E2B
:101D400089B22F4AA2F8901102EB810191ED000AAD
:101D5000B0EE401A1146B1F89011491E89B2A2F8AE
:101D6000901102EB810191ED000AF0EE400A2B2860
:101D70000FD130EE810A1146B1F89021B1F89011DF
:101D8000491C1F4BA3F89011194601EB820181ED0C
:101D9000000A2D280FD130EEC10A1949B1F890215F
:101DA000B1F89011491C164BA3F89011194601EB9C
:101DB000820181ED000A2A280FD120EE810A104904
:101DC000B1F89021B1F89011491C0D4BA3F8901176
:101DD000194601EB820181ED000A2F280FD180EE18
:101DE000810A0749B1F89021B1F89011491C044BC0
:101DF000A3F89011194601EB820181ED000A7047AA
:101E0000187E01201CB529480168684688470020D3
:101E100025F0E4F82649086010212548006825F0DF
:101E200017F8234800681BF003FD224908609DF85D
:101E300002309DF801209DF8030000F5FA611D486D
:101E400000681BF0DDFD9DF801209DF8030000F502
:101E5000FA61184800681BF011FD164800681BF075
:101E6000FFFC0446F0211348006829F046FC4FF4BB
:101E70008C711048006829F092F809210D4800681B
:101E800029F038F8002211460A48006829F0CAFBF8
:101E9000002211460748006829F0FEFA00231A467E
:101EA00005490348006824F06FFA1CBD480500206E
:101EB0003405002038050020BD1E00082DE9F04142
:101EC0000446204620F037FB0546204620F094FBD0
:101ED00006460C2D09D122F033F9074622F036F9D7
:101EE000012802D1024805F01FFABDE8F081000088
:101EF0003C05002070B501241348006802F05DFE27
:101F000011480068007B40F001010F48006817F09D
:101F10009DFA0D48006802F08EFE04462CB10A4876
:101F2000006802F069FE022070BD0748006817F0E3
:101F300056FA05460448006802F027FE0248006889
:101F400002F05AFE2846EFE7880000207CB500200A
:101F50008949087089490870894908709FED890A84
:101F6000894880ED000AB7EE000A884880ED000A33
:101F7000002025F033F88649086010218448006865
:101F800024F066FF824800681AF082FE81490860EA
:101F90008149804800681BF099FA00227F497D48FA
:101FA000006829F069FB01217A4800681BF086FB74
:101FB000002500BF06E0A9B21022764800681BF099
:101FC00033FA6D1C102DF6DB04217248006824F0F2
:101FD0003FFF002211466F48006829F05DFA002299
:101FE00011466C48006829F02FFADC22F02169487C
:101FF000006829F0BAF805216648006828F07AFFE1
:10200000634800682CF0D8FA6549086000216448EC
:1020100000682CF06EFD1421614800682CF064FD0E
:1020200002215F48006824F034FA002211465C481F
:10203000006829F0F7FA002211465948006829F093
:102040002BFA6FF07F4000F47801090A00F47C421B
:1020500041EA5211C0F3C40211430091BDF80020BF
:10206000114600224E480191006829F0D0F9002263
:1020700011464B48006829F0E7F93C22C82148483E
:10208000006829F072F800231A46012144480068CC
:1020900024F070FA02214248006824F0D9FE0022A0
:1020A0003E493F48006829F0E7FA03213C480068B0
:1020B0002CF063FC364800681AF08CFD3949086042
:1020C0006FF06D036FF0090208213648006824F0B4
:1020D00051FA28213348006829F00FFB1E213148AE
:1020E000006828F05CFF002211462E48006829F0A5
:1020F000ABF92C48006822F031FC04462AA12046A6
:1021000023F034FCFF2000210A46D608BDF8003039
:1021100066F304038E080093BDF8003066F34A139B
:10212000C6080093BDF8003066F3CF230093BDF8D6
:1021300000603346002219462046019329F08BFAAD
:1021400000221A49204629F097FA00BF00231A46B8
:102150000921204624F00EFA00BF00231A46144934
:102160000C48006824F010F900231A4611490D4864
:10217000006824F009F97CBDF8020020F902002073
:10218000FA02002000000000FC02002000030020F2
:10219000F4020020140300202003002090250508ED
:1021A000180300201C030020EF959A00E8C40408DF
:1021B000954E0308214E030810B5024800F0C0F9FF
:1021C00010BD0000504B002001460878103818233D
:1021D000B0FBF3F20848805CC865032A05D908689B
:1021E0006FF30900001D886503E008686FF30900BC
:1021F0008865886D704700005E7A030801460020FC
:102200008A6A8B69CBB932B1012A0DD0022A03D078
:10221000032A10D10EE000BFCB6A03F08073B3F144
:10222000807F00D1012007E0CB6AB3F1C07F00D1ED
:10223000012001E000E000BF34E08B69B3F5005FEE
:102240001AD132B1012A07D0022A03D0032A11D1B0
:102250000AE000BF01200EE0CB6A03F08073B3F107
:10226000807F00D1012006E0CB6AB3F1C07F00D1AE
:10227000012000E000BF15E032B1012A05D0022A9A
:1022800004D0032A0CD103E000BF00BF012008E006
:10229000CB6A03F08073B3F1807F00D1012000E0AE
:1022A00000BF00BF704730B50468246824F4802460
:1022B00005682C60046863608468402C04D104685D
:1022C000A2600468E16003E00468A1600468E26061
:1022D00030BD704710B50948006800F0100060B1CB
:1022E0001020064908600648006800F0040010B994
:1022F00000F01CF801E000F049F810BD143C01406A
:1023000010ED00E010B50748006800F0200040B173
:102310000448006840F0200002490860024801F0CB
:10232000B9FA10BD143C0140F44F002008B500BFBD
:10233000002000901048006840F080500E4908606E
:102340000846006800F08050009000BF00BF0B48B6
:10235000006820F00200094908600846006840F063
:10236000010008600648006840F006000449086063
:1023700003F0C4F908BD000040380240007000407E
:1023800010ED00E072B600BFFEE7000010B508488F
:10239000006820F00200064908600846006820F046
:1023A0000400086005F0ACFC03F0B2F910BD0000B9
:1023B00010ED00E010B5034A1189106800F08CFBA5
:1023C00010BD0000984F00201FB5FFF79FFB04468B
:1023D00014B114A003F014FAFFF78CFD044605E0D5
:1023E000FFF788FD044650200CF024FCE00900288B
:1023F000F6D1694602A8FFF789FA044684B99DED33
:10240000000B51EC100B34F0ABFE0C4908719DED44
:10241000020B51EC100B34F0A3FEC1B2074841711E
:102420001FBD00000D0A53746172745F54656D70B6
:102430005F4572726F720D0A0000000048050020AF
:102440002C490968C1F303412A4A1268C2F30352B6
:1024500002EB820201EB4201C17026490968C1F317
:102460000321244A1268C2F3003202EB820201EB1C
:10247000420141701F49096801F00F011D4A1268AD
:10248000C2F3011202EB820201EB42018170194991
:102490000968C1F3423101701649091F0968C1F387
:1024A0000341144A121F1268C2F3015202EB820266
:1024B00001EB420101710F49091F0968C1F30321B2
:1024C0000C4A121F1268C2F3023202EB820201EBC5
:1024D000420141710749091F096801F00F01054ACE
:1024E000121F1268C2F3021202EB820201EB4201D8
:1024F000817170470428004010B52DED068B05F062
:1025000035F910EE104A204635F0B4F941EC1A0BBB
:102510009FED080B53EC102B34F09AFC41EC190B97
:1025200034F0A8FB08EE100A044880ED038ABDECE5
:10253000068B10BD0000000000002440480500206C
:10254000F8B50446002000908C4800684FF41651FE
:10255000B0FBF1F7A56D2E6894F85C100820884058
:10256000304098B12068006800F0040070B1206825
:10257000006820F004002168086094F85C100820CE
:102580008840A860606D40F00100606594F85C10C0
:1025900001208840304068B12068406900F0800028
:1025A00040B194F85C1001208840A860606D40F054
:1025B0000200606594F85C1004208840304068B1E7
:1025C0002068006800F0020040B194F85C1004201C
:1025D0008840A860606D40F00400606594F85C106D
:1025E00010208840304078B32068006800F0080070
:1025F00050B394F85C1010208840A86020680068F0
:1026000000F4802080B12068006800F4002028B920
:10261000206CC8B12046216C884715E0A06C98B1A9
:102620002046A16C88470FE02068006800F48070A5
:1026300028B92068006820F0080021680860206C34
:1026400010B12046216C884794F85C102020884007
:102650003040002865D02068006800F01000002895
:102660005FD094F85C1020208840A86094F8350072
:10267000052828D12068006820F01600216808602D
:102680002068406920F0800021684861206C08B90A
:10269000A06C28B12068006820F00800216808605C
:1026A00094F85C103F208840A860012084F8350031
:1026B00000BF002084F8340000BF206D10B1204618
:1026C000216D8847F8BD2068006800F4802080B143
:1026D0002068006800F4002028B9606C10B1204622
:1026E000616C88471DE0E06BD8B12046E16B8847FC
:1026F00017E02068006800F4807068B920680068FE
:1027000020F0100021680860012084F8350000BF27
:10271000002084F8340000BFE06B10B12046E16B6C
:102720008847606D38B3606D00F00100F0B105209E
:1027300084F835002068006820F0010021680860F6
:1027400000BF0098401C0090B84200D905E0206806
:10275000006800F001000028F3D100BF012084F8D8
:10276000350000BF002084F8340000BFE06C10B1D9
:102770002046E16C884700BFA4E7000084050020E4
:102780002DE9F0410446002500F0B6F9074614B9DA
:102790000120BDE8F081606A00B100BF022084F82A
:1027A000350000BF002084F8340000BF20680068B6
:1027B00020F00100216808600AE000F09DF9C01BCC
:1027C000052805D920206065032084F83500E0E75E
:1027D0002068006800F001000028EED1206805683C
:1027E00021480540D4E901010843E1680843216913
:1027F000084361690843A1690843E1690843216A04
:1028000008430543606A042803D1D4E90B01084357
:102810000543206805602068456925F00705606A62
:102820000543606A04280DD1A06A0543E06A48B1F7
:102830002046FFF7E3FC28B140206065012084F8C2
:102840003500A6E7206845612046FFF7BDFC064637
:1028500094F85C103F208840B06000206065012043
:1028600084F83500002094E73F8010F02DE9F04710
:1028700004460D4616461F464FF00008D4F85890FF
:1028800000BF94F83400012802D10220BDE8F0878F
:10289000012084F8340000BF94F83500012825D1C8
:1028A000022084F83500002060653B463246294608
:1028B0002046FFF7F8FC94F85C103F208840C9F8E8
:1028C00008002068006840F0160021680860206C4D
:1028D00028B12068006840F008002168086020687E
:1028E000006840F001002168086006E000BF002099
:1028F00084F8340000BF4FF002084046C6E70000ED
:10290000F8B502460B460025002400200021C7E050
:10291000012606FA01F51E6806EA0504AC4274D1E8
:102920001E7906F00306012E04D01E7906F0030678
:10293000022E13D190684F000326BE40B0434F00D3
:10294000DE68BE4030439060506801268E40B04340
:102950001E79C6F300168E40304350601E7906F093
:102960000306032E09D0D0684F000326BE40B043B3
:102970004F009E68BE403043D0601E7906F00306CB
:10298000022E13D1CF0802F1200656F827004E0779
:10299000F70E0F26BE40B0434F07FF0E1E69BE4024
:1029A0003043CF0802F1200646F8270010684F0098
:1029B0000326BE40B0431E7906F003064F00BE401A
:1029C000304310605E6806F44036002E67D000BFCA
:1029D00000260096344E366846F48046324F3E60FC
:1029E0003E46366806F48046009600BF00BF2F4E74
:1029F0008F0856F827008E07370F0F26BE40B043CA
:102A00002B4EB24202D1002615E048E0294EB242D8
:102A100001D101260FE0284EB24201D102260AE080
:102A2000264EB24201D1032605E0254EB24201D125
:102A3000042600E007268F073F0FBE4030431B4EA1
:102A40008F0846F827001F4E3068A0435E6806F4E2
:102A5000801606B120431B4E3060361D3068A043FF
:102A60005E6806F4001606B12043164E361D30602F
:102A7000144E361F3068A0435E6806F4003606B177
:102A80002043104E361F3060361F3068A0435E680A
:102A900006F4803606B120430A4E083E3060491CD9
:102AA0001029FFF435AFF8BD443802400838014022
:102AB000000002400004024000080240000C0240F6
:102AC00000100240083C0140024613690B400BB164
:102AD000012000E00020704710B5426921EA02039E
:102AE00002EA010443EA0443836110BD0AB1816133
:102AF00001E00B04836170470148006870470000E3
:102B00007C00002003480068034909780844014913
:102B1000086070477C0000208400002010B50D483C
:102B2000006840F400700B4908600846006840F4F3
:102B3000806008600846006840F4807008600320E8
:102B400000F076F80F2000F007F800F025F80020DC
:102B500010BD0000003C024070B504460C480068FF
:102B60004FF47A71B0FBF1F5284600F045FE08B14C
:102B7000012070BD102C07D200222146501E00F00B
:102B800019F80448046001E00120F2E70020F0E7B2
:102B90008405002080000020704700BF00F01F0265
:102BA000012191404209920002F1E022C2F8001195
:102BB00000BF70472DE9F05F80460D46164600279E
:102BC00004F096FB074639462A46334601F00700D3
:102BD000C0F1070ABAF1040F02D94FF0040A01E06C
:102BE000C0F1070AD14600F1040ABAF1070F02D278
:102BF0004FF0000A01E0A0F1030AD4464FF0010AA9
:102C00000AFA09FAAAF1010A0AEA020A0AFA0CFA0D
:102C10004FF0010B0BFA0CFBABF1010B0BEA030BB2
:102C20004AEA0B042146404604F06AFBBDE8F09FE7
:102C300000BF00F00702064B19684FF6FF0319406A
:102C4000044B0B4343EA0221014B196000BF70475C
:102C50000CED00E00000FA0508B501200349086208
:102C600003480068009000BF08BD000000000E424D
:102C70000070004070B504460D460CB9012070BDCF
:102C80005848006800F00700A84209D255490D7065
:102C90000846006800F00700A84201D00120EEE7D6
:102CA000207800F0020002281DD1207800F00400F6
:102CB000042805D14C48006840F4E0504A490860B7
:102CC000207800F00800082805D14748006840F443
:102CD0006040454908604448006820F0F000A16861
:102CE000084341490860207800F00100A8B36068FB
:102CF000012807D13C4808380068C0F34040B8B903
:102D00000120BCE76068022802D06068032807D170
:102D1000354808380068C0F3406048B90120AEE784
:102D2000314808380068C0F3400008B90120A6E720
:102D30002D48006820F00300616808432A490860B4
:102D4000FFF7DAFE064609E0FFF7D6FE801B41F2E8
:102D50008831884202D9032091E707E022480068C1
:102D600000F00C006168B0EB810FEDD11D480068E8
:102D700000F00700A84209D91A490D7008460068FA
:102D800000F00700A84201D0012078E7207800F089
:102D90000400042807D11448006820F4E050E168DA
:102DA000084311490860207800F00800082808D17D
:102DB0000D48006820F46040216940EAC1000A49DA
:102DC000086000F03FF808490968C1F30311074A99
:102DD000515CC8400649086006480068FFF7BCFE21
:102DE00000204CE7003C0240083802409868050883
:102DF0008405002080000020014800687047000022
:102E00008405002000B5FFF7F7FF04490968C1F306
:102E10008221034A515CC84000BD000008380240CE
:102E2000A868050800B5FFF7E7FF04490968C1F382
:102E30004231034A515CC84000BD000008380240DE
:102E4000A86805082DE9F047002400250026A146C2
:102E50002548006800F00C0020B1042805D008289F
:102E60003AD105E0DFF8849039E0DFF8849036E06D
:102E70001D48001F006800F03F041B48001F006849
:102E800000F4800078B11A481749091F0968C1F396
:102E90008811A0FB01700146224600233846FDF749
:102EA0007BFA05460EE011480F49091F0968C1F376
:102EB0008811A0FB01700146224600233846FDF729
:102EC0006BFA05460848001F0068C0F30140401C2B
:102ED0004600B5FBF6F902E0DFF8109000BF00BF36
:102EE0004846BDE8F0870000083802400024F4009E
:102EF00040787D01F8B504460CB90120F8BD207872
:102F000000F00100002874D0F948006800F00C00BF
:102F100004280DD0F648006800F00C00082813D1F2
:102F2000F348001F006800F48000B0F5800F0BD15B
:102F3000EF4808380068C0F34040002859D0606866
:102F4000002856D10120D9E700BF6068B0F5803F66
:102F500008D1E7480838006840F48030E44908396F
:102F600008601EE06068B0F5A02F0DD1E048083879
:102F7000006840F48020DE4908390860084600688F
:102F800040F4803008600CE0D9480838006820F42C
:102F90008030D749083908600846006820F480204E
:102FA000086000BF606890B1FFF7A6FD054606E027
:102FB000FFF7A2FD401B642801D903209EE7CC48FF
:102FC00008380068C0F340400028F1D011E0FFF756
:102FD00093FD054606E0FFF78FFD401B642801D9ED
:102FE00003208BE7C24808380068C0F3404000283F
:102FF000F1D1207800F0020002285FD1BC480068BF
:1030000000F00C0058B1BA48006800F00C00082825
:103010001CD1B748001F006800F48000B0B9B44864
:1030200008380068C0F3400020B1E068012801D0F2
:10303000012063E7AE480838006820F0F8002169F5
:1030400040EAC100AA490839086037E0E06800B3E7
:103050000120A8490860FFF74FFD054606E0FFF78D
:103060004BFD401B022801D9032047E7A048083840
:103070000068C0F340000028F1D09D48083800687F
:1030800020F0F800216940EAC10099490839086038
:1030900014E0002097490860FFF72EFD054606E082
:1030A000FFF72AFD401B022801D9032026E790489C
:1030B00008380068C0F340000028F1D1207800F003
:1030C000080008282CD16069A8B101208A4908604D
:1030D000FFF712FD054606E0FFF70EFD401B022834
:1030E00001D903200AE782486C300068C0F3400031
:1030F0000028F1D014E000207F490860FFF7FCFCB5
:10310000054606E0FFF7F8FC401B022801D9032022
:10311000F4E677486C300068C0F340000028F1D135
:10312000207800F00400042870D10027704838305F
:10313000006800F0805090B900BF002000906C48FB
:103140003830006840F080506949383108600846DE
:10315000006800F08050009000BF00BF0127674862
:10316000006800F48070B0B96448006840F4807072
:1031700062490860FFF7C0FC054606E0FFF7BCFCAB
:10318000401B022801D90320B8E65C48006800F41F
:1031900080700028F2D000BFA068012808D15448F0
:1031A0006830006840F001005149683108601DE056
:1031B000A06805280DD14E486830006840F0040032
:1031C0004B49683108600846006840F0010008601B
:1031D0000CE047486830006820F00100444968313D
:1031E00008600846006820F00400086000BFA0687E
:1031F000A8B1FFF781FC054609E0FFF77DFC401B05
:1032000041F28831884202D9032077E626E0384827
:1032100068300068C0F340000028EED013E0FFF7EC
:103220006BFC054608E0FFF767FC401B41F2883164
:10323000884201D9032061E62D4868300068C0F358
:1032400040000028EFD1012F07D12948383000680D
:1032500020F0805026493831086000BFA06900285E
:1032600045D02348006800F00C0008285DD0A06914
:10327000022845D100201F490866FFF73DFC05469E
:1032800006E0FFF739FC401B022801D9032035E690
:10329000174808380068C0F340600028F1D1D4E92D
:1032A00007010843616A40EA81110122A06AC2EB6A
:1032B000500041EA00412C20005D41EA00600C49C9
:1032C000091F086001200B490866FFF715FC054639
:1032D00006E0FFF711FC401B022801D903200DE690
:1032E000034808380068C0F340600028F1D049E086
:1032F0000838024000004742800E474200700040FC
:10330000002021490866FFF7F7FB054606E0FFF7B6
:10331000F3FB401B022801D90320EFE51B4800689E
:10332000C0F340600028F2D12CE0A069012800D150
:10333000E4E51648001D0668A069012820D006F4BF
:103340008001E06981421BD106F03F01206A814281
:1033500016D147F6C0703040616AB0EB811F0FD1C3
:1033600006F440310122A06AC2EB5000B1EB004FDD
:1033700006D106F070612C20005DB1EB006F01D02A
:103380000120BBE50020B9E50000474200380240BB
:10339000704710B504460CB9012010BD606A38B9F9
:1033A0006068B0F5827F00D105E00021E16102E0B4
:1033B0000021216161610021A16294F8510028B9C6
:1033C000002084F85000204600F048F8022084F8DD
:1033D00051002068006820F0400021680860A08843
:1033E00000F48270218901F404410843A18901F4A9
:1033F00000610843217C01F002010843217D01F0B6
:1034000001010843218B01F400710843217F01F081
:10341000380108432021095D01F080010843218D16
:1034200001F400510843216808600421A06901EA01
:10343000104094F8241001F01001084321684860FE
:103440002068C06920F400602168C86100206065C0
:10345000012084F8510000209FE7000010B586B0DD
:103460000446142101A8FDF709FA32492068884270
:103470005ED100BF002000902F48006840F48050CB
:103480002D4908600846006800F48050009000BF95
:1034900000BF00BF0020009027481438006840F4A7
:1034A00080002549143908600846006800F480004F
:1034B000009000BF00BF00BF0020009008460068D9
:1034C00040F0020008600846006800F0020000902A
:1034D00000BF00BF2820019002200290002003902E
:1034E000032004900520059001A91448FFF708FA6D
:1034F0001348144908604FF080604860402111482B
:1035000081600021C1604FF4806101614900416127
:10351000890081610021C16101624162FFF730F9D8
:1035200008B1FEF72FFF00BF0648A064846300BF08
:1035300006B010BD00300140443802400004024093
:1035400040640240504B00202DE9F84F0446884665
:1035500016461D464FF0000A00BF94F8500001289F
:1035600002D10220BDE8F88F012084F8500000BF8E
:10357000FFF7C2FA0746B14694F85100012802D07D
:103580004FF0020AADE0B8F1000F00D016B94FF0CD
:10359000010AA6E0032084F8510000206065C4F809
:1035A0003080A686E686A063A087E08760642064FA
:1035B000A068B0F5004F0BD12068006820F04000F3
:1035C000216808602068006840F480402168086035
:1035D0002068006800F04000402805D0206800689E
:1035E00040F0400021680860E068B0F5006F2FD11E
:1035F000606810B1B9F1010F09D1206B0088216812
:10360000C860206B801C2063E08E401EE0861BE0BB
:103610002068806800F0020002280AD1206B008830
:103620002168C860206B801C2063E08E401EE0860D
:103630000AE0FFF761FAC01BA84201D3681C00B979
:1036400015B94FF0030A4CE0E08E0028E0D12EE0DF
:10365000606810B1B9F1010F09D1206B00782168C1
:103660000873206B401C2063E08E401EE0861BE048
:103670002068806800F0020002280AD1206B0078E0
:1036800021680873206B401C2063E08E401EE0869A
:103690000AE0FFF731FAC01BA84201D3681C00B949
:1036A00015B94FF0030A1CE0E08E0028E0D13A463D
:1036B0002946204603F0B8FF08B120206065A068C5
:1036C00050B900BF002000902068C06800902068BA
:1036D0008068009000BF00BF606D08B14FF0010A24
:1036E00000BF012084F8510000BF002084F8500082
:1036F00000BF504636E700002DE9F04104460E4673
:103700001546002700BF94F85000012802D102207E
:10371000BDE8F081012084F8500000BF94F851000A
:10372000012801D0022758E006B10DB9012754E065
:10373000032084F85100002060652663A586E58695
:10374000A06360642064A087E087A068B0F5004FA4
:103750000BD12068006820F04000216808602068D4
:10376000006840F48040216808601F48A16C08642C
:103770001E48A16CC8631E48A16CC8640020A16CDF
:103780000865E38ED4F800C00CF10C02216BA06C2C
:10379000FFF76CF840B1606D40F0100060650127E4
:1037A000012084F8510018E02068006800F0400013
:1037B000402805D02068006840F04000216808607B
:1037C0002068406840F02000216848602068406818
:1037D00040F002002168486000BF00BF002084F86C
:1037E000500000BF384693E79B750008A975000894
:1037F000737500087047704770B504462546681E0B
:10380000B0F1807F01D301200FE0681E4FF0E0216E
:1038100048610F214FF0FF3003F072FD00204FF0A0
:10382000E021886107200861002070BD10B50446C2
:103830000CB9012010BD94F83D0028B9002084F88F
:103840003C00204600F025F8022084F83D00211DB0
:10385000206804F021FB012084F8460000BF84F8B2
:103860003E0001213F2001554020015541200155D6
:1038700000BF00BF012084F84200432001554420CE
:1038800001554520015500BF012084F83D0000206E
:10389000D0E77047014691F83D00012801D0012092
:1038A0007047022081F83D00164B0868984213D0FB
:1038B0000868B0F1804F0FD0134B086898420BD0C6
:1038C000124B0868984207D0114B0868984203D001
:1038D000104B086898420CD10868806800F0070215
:1038E000062A0CD00868006840F001000B681860D8
:1038F00005E00868006840F001000B6818600020CF
:10390000CEE7000000000140000400400008004035
:10391000000C00400040014010B504460CB90120E5
:1039200010BDA06900B100E000BF94F83D0028B9C7
:10393000002084F83C00204600F028F8242084F879
:103940003D002068C06820F400502168C86020460F
:1039500004F0F4FA2068006920F4904021680861BE
:103960002068406920F02A00216848612068C0680A
:1039700040F400502168C86000202064202084F8B2
:103980003D0084F83E000020CAE7000010B586B074
:103990000446142101A8FCF771FF1B4920688842E6
:1039A00030D100BF002000901848006840F010009F
:1039B000164908600846006800F01000009000BF3B
:1039C00000BF00BF0020009010481438006840F08D
:1039D00001000E49143908600846006800F0010033
:1039E000009000BF00BF4FF4C06001900220029021
:1039F00000200390032004900720059001A90448AB
:103A0000FEF77EFF06B010BD0010014044380240B2
:103A1000000002402DE9F84F04460E46174699462D
:103A20004FF0000A94F83D0020285AD106B117B98A
:103A30000120BDE8F88F00BF94F83C00012801D1B7
:103A40000220F6E7012084F83C0000BF002020643B
:103A5000212084F83D00FFF74FF88246A784E784D1
:103A6000A068B0F5805F04D1206910B90025B04688
:103A700002E035464FF0000800BF002084F83C000B
:103A800000BF1BE05346002280212046CDF8009065
:103A900004F06AFB08B10320CBE745B9B8F8000091
:103AA000C0F308002168486008F1020803E02878A4
:103AB000216848606D1CE08C401EE084E08C00288A
:103AC000E0D15346002240212046CDF8009004F07A
:103AD0004BFB08B10320ACE7202084F83D00002018
:103AE000A7E70220A5E700BFFEE770472DE9F041F8
:103AF000044620461EF01FFD054620461EF07CFDB4
:103B000006460C2D1AD120F01BFB074620F01EFBA9
:103B1000022813D100231A4619460948006832F0DA
:103B2000FDF900231A4619460648006832F0F6F9F6
:103B3000054803F037FC054803F020FCBDE8F081A0
:103B40006005002068050020740300201C0400208C
:103B50001FB5002023F042FAFE4908600846FE49DE
:103B600088601021006823F073F9FA48006820F09B
:103B7000F5FEFA49086042F2D171F848006827F072
:103B8000BCFD42F2D171F548006827F008FA6FF0E9
:103B90006801F248006827F0C9FD6FF04501EF4861
:103BA000006827F0DCFD0821EC48006827F0A2F946
:103BB000EB480278EBA101A8FCF766FC01A9E748F5
:103BC000006821F0D3FE0022E749E448006827F0AE
:103BD00053FDE048006820F0C1FEE449086042F26D
:103BE000D171E248006827F088FD42F2D171DF48C8
:103BF000006827F0D4F96FF05101DC48006827F025
:103C000095FD6FF04501D948006827F0A8FD08210F
:103C1000D648006827F06EF9D5A1D448006821F095
:103C2000A5FED4481AF08AFC002201460090CF4835
:103C3000006827F010FD0022FF21CC48006827F023
:103C400028FD0022C849C948006827F015FDC14871
:103C5000006820F083FEC849086042F2D171C6486E
:103C6000006827F04AFD42F2D171C348006827F08E
:103C700096F96FF01301C048006827F057FD6FF008
:103C80004501BD48006827F06AFD0821BA48006870
:103C900027F030F9B9480278B9A101A8FCF7F4FB84
:103CA00001A9B548006821F061FE0022AE49B24882
:103CB000006827F0E1FCA748006817F0B1FEB249A0
:103CC00008603221B048006827F017FD3221AE4865
:103CD000006827F064F96FF04A01AB48006827F0EC
:103CE00025FD6FF04301A848006827F038FD092141
:103CF000A548006827F0FEF80221A348006823F0D9
:103D0000A7F8A2480178A048006818F063FB0022D9
:103D100005219D48006827F060FB9D481AF00EFCC5
:103D20004FF40032014600909748006827F039FBB5
:103D30004FF40032FF219448006827F042FB4FF413
:103D4000003205219048006827F047FB90481AF0A0
:103D5000F5FB4FF44032014600908B48006827F095
:103D600056FB4FF44032FF218748006827F06CFB78
:103D70004FF4403200218448006827F02CFC4FF4B7
:103D8000403200218048006827F032FC4FF4403276
:103D900000217D48006827F038FC4FF440320021B4
:103DA0007948006827F00AFC6A48006820F0D6FDD0
:103DB0007849086042F2D1717648006827F09DFC8E
:103DC00042F2D1717348006827F0E9F86FF04A01B8
:103DD0007048006827F0AAFC6FF031016D48006858
:103DE00027F0BDFC09216B48006827F083F86AA121
:103DF0006848006821F0BAFD65481AF09FFB002270
:103E0000014600906348006827F025FC0022FF214E
:103E10006048006827F03DFC002260495D4800686A
:103E200027F02AFC4B48006820F098FD5C490860A8
:103E300042F2D1715A48006827F05FFC42F2D1711A
:103E40005748006827F0ABF86FF04A015448006803
:103E500027F06CFC6FF043015148006827F07FFCAD
:103E600009214F48006827F045F8484802784DA1DD
:103E700001A8FCF709FB01A94948006821F076FD7B
:103E800000224A494648006827F0F6FB314800689E
:103E900020F064FD4649086042F2D1714448006850
:103EA00027F02BFC42F2D1714148006827F077F8E7
:103EB0006FF04A013E48006827F038FC6FF06D0152
:103EC0003B48006827F04BFC08213948006827F080
:103ED00011F8384803783848027838A101A8FCF76F
:103EE000D3FA01A93248006821F040FD36481AF0A3
:103EF00025FB0022014600902D48006827F0ABFB0F
:103F00000022FF212A48006827F0C3FB00222F4926
:103F10002748006827F0B0FB0E48006820F01EFD1F
:103F20002B49086042F2D1712948006827F0E5FB6F
:103F300042F2D1712648006827F031F86FF0130182
:103F40002348006827F0F2FB6FF06D0120480068FD
:103F500040E0000070030020407D01208403002029
:103F6000DC03002025326400F036050888030020B9
:103F70003A000000808080008C030020DD030020D8
:103F8000253032640000000090030020FF03002071
:103F900019C8190094030020EE9A8F00A83705086D
:103FA0009803002025326425250000006CB5030825
:103FB0009C030020FD030020FC0300202532642D1B
:103FC00025303264000000001E46FF00D85404086B
:103FD000A003002027F0C3FB0821FE48006826F05C
:103FE00089FFFD480078401EFC4A52F82010F9482D
:103FF000006821F0BBFCFA481AF0A0FA0022014642
:104000000090F448006827F026FB0022FF21F148C9
:10401000006827F03EFB0022F249EE48006827F0D6
:104020002BFBF148006820F099FCF049086042F24F
:10403000D171EE48006827F060FB42F2D171EB4885
:10404000006826F0ACFF6FF05901E848006827F0DF
:104050006DFB6FF00401E548006827F080FB092143
:10406000E248006826F046FFE1A1E048006821F040
:104070007DFCE0481AF062FA002201460090DB481D
:10408000006827F0E8FA0022FF21D848006827F0EE
:1040900000FB0022D849D548006827F0EDFAD24845
:1040A000006820F05BFCD549086042F2D171D3482A
:1040B000006827F022FB42F2D171D048006826F058
:1040C0006EFF6FF02701CD48006827F02FFB6FF0DF
:1040D0000401CA48006827F042FB0921C74800686C
:1040E00026F008FFC6A1C548006821F03FFCC14882
:1040F0001AF024FA002201460090C048006827F018
:10410000AAFA0022FF21BD48006827F0C2FA002267
:10411000BF49BA48006827F0AFFAB348006820F0FA
:104120001DFCBC49086042F2D171BA48006827F012
:10413000E4FA42F2D171B748006826F030FF6FF020
:104140003B01B448006827F0F1FA1421B148006837
:1041500027F005FB0921AF48006826F0CBFEAE48EA
:104160000288AEA101A8FCF78FF901A9A94800684F
:1041700021F0FCFB0022AA49A648006827F07CFA3F
:104180009948006818F068FBA649086000222821B9
:10419000A448006818F062FCC821A248006827F013
:1041A000ACFA0A219F48006826F0F9FE00219D48DC
:1041B000006827F0BBFA28219A48006827F0CFFA58
:1041C00009219848006826F095FE8A481AF0B6F949
:1041D0004FF40032014600909248006827F017F92A
:1041E0004FF40032FF218F48006827F02DF97E48F8
:1041F000006817F015FC8C49086032218A48006875
:1042000027F07BFA32218848006826F0C8FE6FF05C
:104210004A018548006827F089FA5A2182480068D7
:1042200027F09DFA09218048006826F063FE0221EC
:104230007D48006822F00CFE3C226FF013017A48A2
:10424000006818F053F8794890F900107648006833
:1042500018F0C0F8002205217348006827F0BDF867
:1042600073481AF06BF94FF40032014600906E4823
:10427000006827F096F84FF40032FF216A48006882
:1042800027F09FF84FF4003205216748006827F0B7
:10429000A4F867481AF052F94FF4403201460090F2
:1042A0006148006827F0B3F84FF44032FF215E48C0
:1042B000006827F0C9F84FF4403200215A480068DE
:1042C00027F089F94FF4403200215748006827F061
:1042D0008FF94FF4403200215348006827F095F9D8
:1042E0004FF4403200215048006827F067F93E48FB
:1042F000006820F033FB4F49086042F2D1714D480D
:10430000006827F0FAF942F2D1714A48006826F0B5
:1043100046FE6FF04A014748006827F007FA5A2125
:104320004448006827F01BFA09214248006826F03B
:10433000E1FD41A13F48006821F018FB3C481AF01C
:10434000FDF80022014600903A48006827F083F902
:104350000022FF213748006827F09BF900223749E7
:104360003448006827F088F91F48006820F0F6FA02
:104370003349086042F2D1713148006827F0BDF935
:1043800042F2D1712E48006826F009FE6FF0480114
:104390002B48006827F0CAF97D212948006827F0DA
:1043A000DEF909212648006826F0A4FD1F4890F98F
:1043B00000201AA101A8FCF767F801A920480068AD
:1043C00021F0D4FA0848006820F0C8FA1D490860B6
:1043D0003AE00000A0030020FE030020E0030020DC
:1043E0001E46FF00D854040870030020A4030020D8
:1043F000EE99B600FF78320098390508A80300202E
:10440000E6B5B7E68B94E9AB98E5BAA600000000E4
:10441000D0C70408AC03002000040020256400007D
:10442000B8FF0308B0030020B403002005040020F7
:104430003AA7F500B8030020EE999900F04C050862
:10444000BC030020C003002042F2D171F54800688F
:1044500027F053F942F2D171F248006826F09FFD2F
:104460000021F048006827F061F95921ED48006803
:1044700027F075F90921EB48006826F03BFDEAA119
:10448000E848006821F072FAE8481AF057F800226C
:1044900001460090E348006827F0DDF80022FF2184
:1044A000E048006827F0F5F80022E149DD4800689F
:1044B00027F0E2F8DF48006817F0B2FADE4908603A
:1044C0003221DD48006827F018F93221DA48006807
:1044D00026F065FD0021D848006827F027F95A2109
:1044E000D548006827F03BF90921D348006826F039
:1044F00001FD0221D048006822F0AAFCCF4890F9C3
:104500000010CD48006817F065FF4FF41B724FF4A0
:104510008771C948006817F014FE00220521C648BB
:10452000006826F05AFFC1481AF008F84FF400322C
:1045300001460090C048006826F033FF4FF4003277
:10454000FF21BD48006826F03CFF4FF400320521F2
:10455000B948006826F041FFB44819F0EFFF4FF466
:10456000403201460090B448006826F050FF4FF4F6
:104570004032FF21B048006826F066FF4FF4403219
:104580000021AD48006827F026F84FF440320021A2
:10459000A948006827F02CF84FF440320021A648C3
:1045A000006827F032F84FF440320021A24800683A
:1045B00027F004F89F48006820F0D0F9A04908606F
:1045C00042F2D1719E48006827F097F842F2D1710B
:1045D0009B48006826F0E3FC00219948006827F01A
:1045E000A5F87D219648006827F0B9F8092194487C
:1045F000006826F07FFC914890F90020AFF2E411AA
:1046000001A8FBF741FF01A98D48006821F0AEF930
:104610008848006817F004FA8A49086032218948FE
:10462000006827F06AF832218648006826F0B7FC57
:1046300046218448006827F079F85A2181480068AB
:1046400027F08DF809217F48006826F053FC0221ED
:104650007C48006822F0FCFB64217A48006817F06F
:10466000B9FE4FF41B724FF487717648006817F05B
:1046700068FD002205217348006826F0AEFE7248EE
:1046800019F05CFF4FF40032014600906D4800685D
:1046900026F087FE4FF40032FF216A48006826F0BA
:1046A00090FE4FF4003205216648006826F095FE22
:1046B000654819F043FF4FF44032014600906148CD
:1046C000006826F0A4FE4FF44032FF215D480068E8
:1046D00026F0BAFE4FF4403200215A48006826F016
:1046E0007AFF4FF4403200215648006826F080FFE0
:1046F0004FF4403200215348006826F086FF4FF403
:10470000403200214F48006826F058FF49480068B1
:1047100020F024F94D49086042F2D1714B480068FD
:1047200026F0EBFF42F2D1714848006826F037FCD2
:1047300046214648006826F0F9FF5A2143480068A0
:1047400027F00DF809214148006826F0D3FB40A16D
:104750003E48006821F00AF93B4819F0EFFE0022BC
:10476000014600903948006826F075FF0022FF21BD
:104770003648006826F08DFF00223649334800682D
:1047800026F07AFF2B48006820F0E8F832490860EC
:1047900042F2D1713048006826F0AFFF42F2D17189
:1047A0002D48006826F0FBFB46212B48006826F0C8
:1047B000BDFF7D212848006826F0D1FF0921264849
:1047C000006826F097FB6322AFF2B03101A8FBF737
:1047D0005BFE01A92048006821F0C8F800231A46B2
:1047E0001E491448006821F0CFFD00231A461946DF
:1047F0001B48006831F092FB00231A4619461948FD
:10480000006831F08BFB00224FF47A7116482AF0D1
:104810004DFB164908600748046820461AF08BFAD9
:1048200000BF1FBDC0030020EE99B300E1C8140013
:104830008C41050870030020C403002006040020FA
:10484000C8030020CC0300203214E100D003002074
:10485000EE9DA200C4510508D4030020ED3A0008E3
:104860005C0500206405002071480008D803002082
:1048700070B52DED068B05466748806867498968E5
:1048800088427CD166480079664991F900108842D7
:1048900017D06348007940B262490870084690F921
:1048A00000106148006817F095FD5E4890F90020FF
:1048B0005EA15F48FBF7E8FD5D495E48006821F0B6
:1048C00055F8574840795C4991F90010884217D053
:1048D0005348407940B258490870084690F9001092
:1048E0005648006817F076FD534890F900204FA114
:1048F0004F48FBF7C9FD4E495148006821F036F892
:10490000474890ED030A4F48D0ED000AB4EE600A24
:10491000F1EE10FA37D0424890ED030A494880ED95
:10492000000A006832F0A6FF41EC1A0B9FED460B1F
:1049300053EC102B32F08CFA41EC190B9FED440B29
:1049400053EC102B32F0A0FC41EC180B32F0D8FBEA
:104950000446002221464048006818F07FF8394894
:10496000006832F087FF41EC180B53EC182B3BA189
:104970002F48FBF789FD2E493A48006800E047E0E0
:1049800020F0F4FF00BF26480168374888473648C2
:104990000079364908703448407935490870324802
:1049A00040783449087030480078334908702E4800
:1049B0008078324908702D48027831A11C48FBF7F5
:1049C00063FD1B492F48006820F0D0FF284802787B
:1049D0002DA11748FBF758FD15492D48006820F018
:1049E000C5FF26480378234802782AA11048FBF720
:1049F0004BFD0F492A48006820F0B8FF1E48007898
:104A0000401E284A52F820102748006820F0AEFFC8
:104A1000BDEC068B70BD0000407D012074030020BA
:104A20004805002005040020B40300202564000090
:104A300012800120BC03002006040020C4030020D3
:104A4000C803002008040020000000000088B340D4
:104A50000000000000005940B0030020252E3266FF
:104A600000000000AC0300200E040020DC03002046
:104A7000DD030020FC030020FE030020FD030020D6
:104A800025326400840300202530326400000000D9
:104A90008C0300202532642D253032640000000094
:104AA0009C030020E0030020A003002070B5054611
:104AB00008260024284602F025FD13E06006040EB7
:104AC0000021284602F006FD02200AF0BFF801216D
:104AD000284602F0FFFC01200AF0B8F8284602F050
:104AE00006FD04433000A6F10101CEB2E6D100215B
:104AF000284602F0EFFC284602F026FD204670BD55
:104B000010B504460021204602F011FD01200AF0F4
:104B10009DF80121204602F0DDFC02200AF096F803
:104B20000021204602F0D6FC02200AF08FF810BDCA
:104B300070B505460C4608261AE00021284602F00A
:104B4000C9FC02200AF082F804F08001284602F035
:104B5000EEFC01200AF07AF86006040E01200AF04B
:104B600075F80121284602F0B5FC01200AF06EF824
:104B70003000A6F10101CEB2DFD10021284602F0BB
:104B8000A9FC02200AF062F870BD10B504460121AC
:104B9000204602F0CCFC01200AF058F80121204602
:104BA00002F098FC02200AF051F80021204602F0A1
:104BB00091FC02200AF04AF810BD10B5044601210C
:104BC000204602F0B4FC02200AF040F80121204601
:104BD00002F080FC02200AF039F80021204602F0A1
:104BE000A6FC02200AF032F80021204602F072FCF6
:104BF00002200AF02BF810BD10B504460021204613
:104C000002F068FC02200AF021F80021204602F0A0
:104C10008EFC02200AF01AF80121204602F05AFC0C
:104C200002200AF013F80121204602F080FC022045
:104C30000AF00CF810BD70B505460524284602F0B0
:104C400061FC04200AF002F80121284602F042FC2F
:104C50000DE0601E84B2042009F0F8FF3CB928463C
:104C600002F072FC2846FFF7C7FF012070BD2846FE
:104C700002F03DFC0028ECD1284602F065FC002142
:104C8000284602F027FC042009F0E0FF0020EDE7B1
:104C900010B586B00446142101A8FBF7EFFD00BF54
:104CA000002000901248006840F00200104908609F
:104CB0000846006800F00200009000BF00BF208995
:104CC000019011200290012003900220049001A97C
:104CD0002068FDF715FE6089019001200290039085
:104CE0000220049001A96068FDF70AFE06B010BD1D
:104CF000303802402DE9F04780460D4617461E46E3
:104D0000DDF820904046FFF758FF6806010E404648
:104D1000FFF70EFF4046FFF78EFF28B14046FFF732
:104D20006BFF0120BDE8F08739464046FFF700FFE2
:104D30004046FFF780FF4046FFF73FFF012000EBB2
:104D40004500C1B24046FFF7F3FE4046FFF773FF50
:104D500000240CE04046FFF7A9FE09F80400701E8D
:104D6000A04202DD4046FFF7CBFE601CC4B2B44255
:104D7000F0DB4046FFF709FF4046FFF73DFF00200C
:104D8000D0E72DE9F04106460C4615463046FFF7C0
:104D900014FF6006010E3046FFF7CAFE3046FFF7EB
:104DA0004AFF29463046FFF7C3FE3046FFF743FF70
:104DB0003046FFF702FF012000EB4400C1B230464D
:104DC000FFF7B6FE3046FFF736FF3046FFF76EFEC0
:104DD00007463046FFF7D9FE3046FFF70DFF38464D
:104DE000BDE8F0812DE9F04107460C4615461E4608
:104DF0003846FFF7E2FE6006010E3846FFF798FEE0
:104E00003846FFF718FF28B13846FFF7F5FE0120B6
:104E1000BDE8F08129463846FFF78AFE3846FFF79D
:104E20000AFF31463846FFF783FE3846FFF703FF97
:104E30003846FFF7E1FE012009F008FF0020E7E710
:104E400000B587B000BF002001901448006840F012
:104E50000100124908600846006800F00100019056
:104E600000BF00BF142102A8FBF708FD202002901C
:104E70004FF4041003900120049002A90848FDF7A4
:104E80003FFD002206211720FDF794FE1720FDF7B5
:104E900084FE02F0BFFF002007B000BD30380240A2
:104EA000000002402DE9F04107460C4615461E461B
:104EB0002A2000F073F9384600F058F9284600F02F
:104EC00055F92B2000F06AF9204600F04FF93046E2
:104ED00000F04CF92C2000F061F9BDE8F0810000F1
:104EE0002DE9F05F06460C4617461D46DDF8288082
:104EF000B81B401C1FFA80F9281B401C1FFA80FABF
:104F000009FB0AFB05F1140083B204F1140081B21D
:104F10003A463046FFF7C6FF4FF400611048C160C3
:104F20000068006840F400600D49096808601FFAD5
:104F30008BF241460A48FEF7DFFB00BF09480068D4
:104F400040680028FAD100210548C1600068006867
:104F500020F40060024909680860BDE8F09F000085
:104F6000F84A0020504B002000B587B0142102A859
:104F7000FBF784FC00BF002001901048006840F05F
:104F800002000E4908600846006800F00200019027
:104F900000BF00BF4FF46070029001200390032017
:104FA000059002A90648FDF7ABFC01224FF46071A1
:104FB0000348FDF79BFD07B000BD000030380240FC
:104FC0000004024010B5FFF7CFFF00224FF48071BC
:104FD0006548FDF78BFD002280216348FDF786FDC3
:104FE000642009F027FE012280215F48FDF77EFD45
:104FF000642009F01FFE112000F0D0F8782009F09D
:1050000019FE362000F0CAF8002000F0C1F83A205E
:1050100000F0C4F8052000F0BBF8B22000F0BEF8A4
:105020000C2000F0B5F80C2000F0B2F8002000F0E1
:10503000AFF8332000F0ACF8332000F0A9F8B72027
:1050400000F0ACF8352000F0A3F8BB2000F0A6F883
:10505000192000F09DF8C02000F0A0F82C2000F0EE
:1050600097F8C22000F09AF8012000F091F8C320D0
:1050700000F094F8122000F08BF8C42000F08EF8B5
:10508000202000F085F8C62000F088F80F2000F0FE
:105090007FF8D02000F082F8A42000F079F8A12059
:1050A00000F076F8E02000F079F8D02000F070F8F9
:1050B000042000F06DF80D2000F06AF8112000F0D7
:1050C00067F8132000F064F82B2000F061F83F200F
:1050D00000F05EF8542000F05BF84C2000F058F827
:1050E000182000F055F80D2000F052F80B2000F0C9
:1050F0004FF81F2000F04CF8232000F049F8E12081
:1051000000F04CF8D02000F043F8042000F040F804
:105110000C2000F03DF8112000F03AF8132000F0C8
:1051200037F82C2000F034F83F2000F031F844200C
:1051300000F02EF8512000F02BF82F2000F028F876
:105140001F2000F025F81F2000F022F8202000F09A
:105150001FF8232000F01CF8212000F01FF8292060
:1051600000F01CF810BD00000004024038B50446F1
:10517000200A8DF80000E0B28DF801000123022220
:1051800069460248FEF7E0F938BD0000F84A002001
:1051900010B50446204600F015F810BD10B50446C1
:1051A00000224FF400710648FDF7A0FC204600F0F5
:1051B00009F8012251020248FDF798FC10BD0000D9
:1051C0000004024001B501231A4669460148FEF772
:1051D000BBF908BDF84A002070B52DED0C8B86B0E8
:1051E00004460D466A4602A904A800F0DDF806460A
:1051F00026B1304606B0BDEC0C8B70BD9DED001B9A
:105200009DED020B03F0D4F9B0EE408AF0EE608A17
:105210009FED290B53EC102B51EC180B32F034F8A6
:10522000C4E900019DED000B53EC102B9DED000B2C
:1052300051EC100B32F028F841EC1C0B9DED020BE9
:1052400053EC102B9DED020B51EC100B32F01CF8BF
:1052500041EC1D0B53EC1C2B31F03EFD41EC1B0BC4
:10526000B0EE4B0AF0EE6B0A04F0BCFBB0EE409AD5
:10527000F0EE609A9DED040B51EC100B31F0EEFC5A
:1052800041EC1A0BB0EE491AF0EE691AB0EE4A0A78
:10529000F0EE6A0A03F08CF9B0EE408AF0EE608A14
:1052A0009FED050B53EC102B51EC180B31F0ECFF7C
:1052B000C5E9000100209DE7E3A9471ADCA54C40A1
:1052C00038B502F0DBFC134813490D682ECD2EC013
:1052D00010381249086032200968087300BF17208F
:1052E00000F04EF90400FAD16A4623210B48006809
:1052F00000F016F89DF8000040F00800009000BF94
:105300009DF8002023210548006800F001F9040001
:10531000F6D138BDE44F00208C000020F0000020C2
:105320002DE9F04105460F4616462846FFF745FC95
:10533000297B284614F08AF82846FFF77CFC0446AF
:105340002CB12846FFF758FC2046BDE8F0813946CD
:10535000284614F07BF82846FFF76DFC044624B17C
:105360002846FFF749FC2046EFE72846FFF725FCD3
:10537000287B40F00101284614F068F82846FFF722
:105380005AFC044624B12846FFF736FC2046DCE7E9
:10539000284614F024F830702846FFF7F6FB28461C
:1053A000FFF72AFC0020D0E72DE9F04F2DED068B0A
:1053B00081B004460D4616464A48B0F900806A4658
:1053C000292149480068FFF7ABFF07460DF10102AC
:1053D000282145480068FFF7A3FF07469DF8010014
:1053E0009DF8001000EB01200FFA80F9404631F0E3
:1053F000E4FE41EC180B484631F0DFFE41EC1A0B9D
:105400009FED3A0B53EC102B31F022FD41EC190BC0
:1054100053EC182B31F038FFC4E900016A462B2108
:1054200031480068FFF77CFF07460DF101022A2191
:105430002D480068FFF774FF07469DF801009DF8AE
:10544000001000EB01200FFA80FA404631F0B5FE63
:1054500041EC180B504631F0B0FE41EC1A0B9FEDB9
:10546000230B53EC102B31F0F3FC41EC190B53ECF4
:10547000182B31F009FFC5E900016A462D211A48B1
:105480000068FFF74DFF07460DF101022C21164879
:105490000068FFF745FF07469DF801009DF80010E2
:1054A00000EB01200FFA80FB404631F086FE41EC14
:1054B000180B584631F081FE41EC1A0B9FED0B0B97
:1054C00053EC102B31F0C4FC41EC190B53EC182BAE
:1054D00031F0DAFEC6E90001384601B0BDEC068BBA
:1054E000BDE8F08FE6000020F00000200000000082
:1054F000C0FFDF4070B50446224620210348006803
:10550000FFF70EFF0546284670BD0000F0000020A2
:105510002DE9F04105460F4616462846FFF74DFB9C
:10552000297B284613F092FF2846FFF784FB0446A8
:105530002CB12846FFF760FB2046BDE8F0813946D4
:10554000284613F083FF2846FFF775FB044624B175
:105550002846FFF751FB2046EFE73146284613F077
:1055600075FF2846FFF767FB044624B12846FFF77E
:1055700043FB2046E1E72846FFF73EFB0020DCE73F
:1055800070B504462246202103480068FFF7C0FF9B
:105590000546284670BD0000F000002090B045E0B0
:1055A0000EA8FFF7A7FF044624B99DF8381020A0E5
:1055B00000F026F908AA0AA90CA8FFF7F5FE044690
:1055C0007CB99DED080B8DED020B9DED0A0B8DED69
:1055D000000B9DED0C0B53EC102B1DA000F010F9EF
:1055E00002E025A000F00CF904A906A8FFF7F4FDDD
:1055F00004465CB99DED040B8DED000B9DED060B93
:1056000053EC102B25A000F0FBF802E02AA000F0DC
:10561000F7F83048006828B100202E4908602EA015
:1056200000F0EEF842F2107030F0DEF8B8E700005B
:10563000204C534D3330332047657420526567202A
:10564000446174613A20256868750D0A0000000005
:10565000204C534D333033204765742041636365DC
:105660006C20446174613A20256C6620256C6620AC
:10567000256C660D0A000000204C534D333033205A
:1056800047657420416363656C2044617461204602
:1056900061696C6564210D0A00000000204C534DC7
:1056A0003330332047657420506F73653A20256C82
:1056B0006620256C660D0A00204C534D3330332094
:1056C00047657420506F7365204661696C6564217D
:1056D0000D0A0000800500202047657420475049CE
:1056E0004F20466C6167210D0A00000004E029F09C
:1056F00051FC052030F078F8F9E7000010B50022E1
:1057000001210248FDF7F2F910BD0000000402403B
:1057100010B5012211460248FDF7E8F910BD00005E
:105720000004024000B587B0142102A8FBF7A6F8D8
:1057300000BF002001900E48006840F002000C49B4
:1057400008600846006800F00200019000BF00BF3A
:105750000120029003900320059002A90548FDF75F
:10576000CFF8012211460348FDF7C0F907B000BD8C
:10577000303802400004024000B587B0142102A86E
:10578000FBF77CF800BF002001901148006840F052
:1057900001000F4908600846006800F00100019010
:1057A00000BF00BF102002904FF48810039000202B
:1057B000049002A90748FDF7A3F8002202210A205D
:1057C000FDF7F8F90A20FDF7E8F907B000BD000081
:1057D000303802400000024070B50446002507E062
:1057E0004FF6FF73012221460448FEF713F96D1CA2
:1057F00014F8011B0029F3D1284670BDB44A0020DB
:105800000FB438B5002405A800900099049806F05C
:10581000FBFB044600200090204638BC5DF814FBDA
:1058200070B502F02BFA0E480E490D682ECD2EC031
:1058300010380D490860D0200968087380216B205A
:1058400000F01CF804464FF4FA7009F0F3F900F088
:105850000DF804460CB1204670BD0020FCE70000A6
:10586000D44F00208C000020DC00002010B5212146
:105870006B2000F003F80446204610BD70B50546C5
:105880000E461F480068FFF798F91D480068017B25
:105890001B48006813F0DAFD19480068FFF7CBF9E0
:1058A00004462CB116480068FFF7A6F9204670BDE3
:1058B00029461348006813F0C9FD11480068FFF736
:1058C000BAF904462CB10E480068FFF795F9204656
:1058D000EDE731460A48006813F0B8FD0848006853
:1058E000FFF7A9F904462CB105480068FFF784F9D1
:1058F0002046DCE702480068FFF77EF90020D6E783
:10590000DC00002008B500BF0020009012480068AD
:1059100040F48000104908600846006800F48000E8
:10592000009000BF00BF002205213A20FDF742F998
:105930003A20FDF732F9002205214420FDF73AF91B
:105940004420FDF72AF9002205214620FDF732F90F
:105950004620FDF722F908BD3038024008B500BFE7
:10596000002000901448006840F4805012490860FC
:105970000846006800F48050009000BF00BF0F4848
:105980000F4908604FF48270486000210C48816024
:10599000C16002210161012141614902816100214F
:1059A000C1610162416281620A21C162FDF7F1FCBD
:1059B00008B1FCF7E7FC08BD443802400030014064
:1059C000F84A002010B50B480B4908604FF4E1304D
:1059D0004860002108488160C16001610C2141617B
:1059E00000218161C161FDF797FF08B1FCF7CAFC96
:1059F00010BD000000100140B44A002000BFFEE7C7
:105A000008B50020009069460448006830F0D8FBD3
:105A100069460348006830F0D3FB08BD5C050020F0
:105A2000640500202DE9F041054628461CF083FD61
:105A3000044628461CF0E0FD06460C2C20D11EF042
:105A40007FFB07461EF082FB012803D1114801F0BD
:105A50006BFC15E01EF074FB07461EF077FB082870
:105A60000ED01EF06DFB07461EF070FB042807D019
:105A70000A2C05D10848006822F032FA074908804C
:105A8000072C05D10448006822F02AFA034908804F
:105A9000BDE8F0811C04002018040020E804002068
:105AA00008B5002021F09AFAFE49086000231A4642
:105AB000FD49FC48006820F067FCFA48006821F0C6
:105AC0008DFAFA490860F021F848006825F015FEC3
:105AD0004621F648006825F062FA0221F348006882
